{
  "contractName": "EthPriceOracle",
  "abi": [
    {
      "anonymous": false,
      "inputs": [
        {
          "indexed": false,
          "internalType": "address",
          "name": "callerAddress",
          "type": "address"
        },
        {
          "indexed": false,
          "internalType": "uint256",
          "name": "id",
          "type": "uint256"
        }
      ],
      "name": "GetLatestEthPriceEvent",
      "type": "event"
    },
    {
      "anonymous": false,
      "inputs": [
        {
          "indexed": true,
          "internalType": "address",
          "name": "previousOwner",
          "type": "address"
        },
        {
          "indexed": true,
          "internalType": "address",
          "name": "newOwner",
          "type": "address"
        }
      ],
      "name": "OwnershipTransferred",
      "type": "event"
    },
    {
      "anonymous": false,
      "inputs": [
        {
          "indexed": false,
          "internalType": "uint256",
          "name": "ethPrice",
          "type": "uint256"
        },
        {
          "indexed": false,
          "internalType": "address",
          "name": "callerAddress",
          "type": "address"
        }
      ],
      "name": "SetLatestEthPriceEvent",
      "type": "event"
    },
    {
      "inputs": [],
      "name": "owner",
      "outputs": [
        {
          "internalType": "address",
          "name": "",
          "type": "address"
        }
      ],
      "stateMutability": "view",
      "type": "function"
    },
    {
      "inputs": [],
      "name": "renounceOwnership",
      "outputs": [],
      "stateMutability": "nonpayable",
      "type": "function"
    },
    {
      "inputs": [
        {
          "internalType": "address",
          "name": "_newOwner",
          "type": "address"
        }
      ],
      "name": "transferOwnership",
      "outputs": [],
      "stateMutability": "nonpayable",
      "type": "function"
    },
    {
      "inputs": [],
      "name": "getLatestEthPrice",
      "outputs": [
        {
          "internalType": "uint256",
          "name": "",
          "type": "uint256"
        }
      ],
      "stateMutability": "nonpayable",
      "type": "function"
    },
    {
      "inputs": [
        {
          "internalType": "uint256",
          "name": "_ethPrice",
          "type": "uint256"
        },
        {
          "internalType": "address",
          "name": "_callerAddress",
          "type": "address"
        },
        {
          "internalType": "uint256",
          "name": "_id",
          "type": "uint256"
        }
      ],
      "name": "setLatestEthPrice",
      "outputs": [],
      "stateMutability": "nonpayable",
      "type": "function"
    }
  ],
  "bytecode": "0x608060405260006001556103e860025534801561001b57600080fd5b50336000806101000a81548173ffffffffffffffffffffffffffffffffffffffff021916908373ffffffffffffffffffffffffffffffffffffffff1602179055506109ff8061006b6000396000f3fe608060405234801561001057600080fd5b50600436106100575760003560e01c806330c0b9ec1461005c578063715018a61461007a5780638da5cb5b14610084578063cf642f1f146100a2578063f2fde38b146100be575b600080fd5b6100646100da565b60405161007191906105da565b60405180910390f35b6100826101a1565b005b61008c6102b7565b6040516100999190610636565b60405180910390f35b6100bc60048036038101906100b791906106ae565b6102db565b005b6100d860048036038101906100d39190610701565b610467565b005b6000600160008154809291906100ef9061075d565b9190505550600060025442336001546040516020016101109392919061080e565b6040516020818303038152906040528051906020012060001c610133919061087a565b905060016003600083815260200190815260200160002060006101000a81548160ff0219169083151502179055507f3d50a0c24e97813f35595d2f1f37dbf421d5e97f37abd4e222853e9b9c82c8d533826040516101929291906108ab565b60405180910390a18091505090565b60008054906101000a900473ffffffffffffffffffffffffffffffffffffffff1673ffffffffffffffffffffffffffffffffffffffff163373ffffffffffffffffffffffffffffffffffffffff16146101f957600080fd5b600073ffffffffffffffffffffffffffffffffffffffff1660008054906101000a900473ffffffffffffffffffffffffffffffffffffffff1673ffffffffffffffffffffffffffffffffffffffff167f8be0079c531659141344cd1fd0a4f28419497f9722a3daafe3b4186f6b6457e060405160405180910390a360008060006101000a81548173ffffffffffffffffffffffffffffffffffffffff021916908373ffffffffffffffffffffffffffffffffffffffff160217905550565b60008054906101000a900473ffffffffffffffffffffffffffffffffffffffff1681565b60008054906101000a900473ffffffffffffffffffffffffffffffffffffffff1673ffffffffffffffffffffffffffffffffffffffff163373ffffffffffffffffffffffffffffffffffffffff161461033357600080fd5b6003600082815260200190815260200160002060009054906101000a900460ff16610393576040517f08c379a000000000000000000000000000000000000000000000000000000000815260040161038a90610957565b60405180910390fd5b6003600082815260200190815260200160002060006101000a81549060ff021916905560008290508073ffffffffffffffffffffffffffffffffffffffff1663b5d73ba485846040518363ffffffff1660e01b81526004016103f6929190610977565b600060405180830381600087803b15801561041057600080fd5b505af1158015610424573d6000803e3d6000fd5b505050507f91b860381268a473101de3379abbb70abf7ea6c9d1735cf58b9816479ff3b72784846040516104599291906109a0565b60405180910390a150505050565b60008054906101000a900473ffffffffffffffffffffffffffffffffffffffff1673ffffffffffffffffffffffffffffffffffffffff163373ffffffffffffffffffffffffffffffffffffffff16146104bf57600080fd5b6104c8816104cb565b50565b600073ffffffffffffffffffffffffffffffffffffffff168173ffffffffffffffffffffffffffffffffffffffff160361050457600080fd5b8073ffffffffffffffffffffffffffffffffffffffff1660008054906101000a900473ffffffffffffffffffffffffffffffffffffffff1673ffffffffffffffffffffffffffffffffffffffff167f8be0079c531659141344cd1fd0a4f28419497f9722a3daafe3b4186f6b6457e060405160405180910390a3806000806101000a81548173ffffffffffffffffffffffffffffffffffffffff021916908373ffffffffffffffffffffffffffffffffffffffff16021790555050565b6000819050919050565b6105d4816105c1565b82525050565b60006020820190506105ef60008301846105cb565b92915050565b600073ffffffffffffffffffffffffffffffffffffffff82169050919050565b6000610620826105f5565b9050919050565b61063081610615565b82525050565b600060208201905061064b6000830184610627565b92915050565b600080fd5b61065f816105c1565b811461066a57600080fd5b50565b60008135905061067c81610656565b92915050565b61068b81610615565b811461069657600080fd5b50565b6000813590506106a881610682565b92915050565b6000806000606084860312156106c7576106c6610651565b5b60006106d58682870161066d565b93505060206106e686828701610699565b92505060406106f78682870161066d565b9150509250925092565b60006020828403121561071757610716610651565b5b600061072584828501610699565b91505092915050565b7f4e487b7100000000000000000000000000000000000000000000000000000000600052601160045260246000fd5b6000610768826105c1565b91507fffffffffffffffffffffffffffffffffffffffffffffffffffffffffffffffff820361079a5761079961072e565b5b600182019050919050565b6000819050919050565b6107c06107bb826105c1565b6107a5565b82525050565b60008160601b9050919050565b60006107de826107c6565b9050919050565b60006107f0826107d3565b9050919050565b61080861080382610615565b6107e5565b82525050565b600061081a82866107af565b60208201915061082a82856107f7565b60148201915061083a82846107af565b602082019150819050949350505050565b7f4e487b7100000000000000000000000000000000000000000000000000000000600052601260045260246000fd5b6000610885826105c1565b9150610890836105c1565b9250826108a05761089f61084b565b5b828206905092915050565b60006040820190506108c06000830185610627565b6108cd60208301846105cb565b9392505050565b600082825260208201905092915050565b7f546869732072657175657374206973206e6f7420696e206d792070656e64696e60008201527f67206c6973742e00000000000000000000000000000000000000000000000000602082015250565b60006109416027836108d4565b915061094c826108e5565b604082019050919050565b6000602082019050818103600083015261097081610934565b9050919050565b600060408201905061098c60008301856105cb565b61099960208301846105cb565b9392505050565b60006040820190506109b560008301856105cb565b6109c26020830184610627565b939250505056fea2646970667358221220718635f2ed014e8c7a722a639fdb65df50a6ca9184d6df1af9723685efee38a464736f6c634300080d0033",
  "immutableReferences": {},
  "source": "// SPDX-License-Identifier: MIT\r\npragma solidity >=0.4.22 <0.9.0;\r\n\r\nimport \"zeppelin-solidity/contracts/ownership/Ownable.sol\";\r\nimport \"./CallerContractInterface.sol\";\r\n\r\ncontract EthPriceOracle is Ownable {\r\n  uint private randNonce = 0;\r\n  uint private modulus = 1000;\r\n\r\n  mapping(uint256=>bool) pendingRequests;\r\n\r\n  event GetLatestEthPriceEvent(address callerAddress, uint id);\r\n  event SetLatestEthPriceEvent(uint256 ethPrice, address callerAddress);\r\n\r\n  function getLatestEthPrice() public returns (uint256) {\r\n    randNonce++;\r\n    uint id = uint(keccak256(abi.encodePacked(block.timestamp, msg.sender, randNonce))) % modulus;\r\n    pendingRequests[id] = true;\r\n    emit GetLatestEthPriceEvent(msg.sender, id);\r\n    return id;\r\n  }\r\n\r\n  function setLatestEthPrice(uint256 _ethPrice, address _callerAddress, uint256 _id) public onlyOwner {\r\n    require(pendingRequests[_id], \"This request is not in my pending list.\");\r\n    delete pendingRequests[_id];\r\n    CallerContractInterface callerContractInstance;\r\n    callerContractInstance = CallerContractInterface(_callerAddress);\r\n    callerContractInstance.callback(_ethPrice, _id);\r\n    emit SetLatestEthPriceEvent(_ethPrice, _callerAddress);\r\n  }\r\n}\r\n",
  "sourcePath": "D:\\test\\zombieDApp\\contracts\\oracle\\EthPriceOracle.sol",
  "compiler": {
    "name": "solc",
    "version": "0.8.13+commit.abaa5c0e.Emscripten.clang"
  },
  "schemaVersion": "3.4.7",
  "updatedAt": "2022-05-17T03:43:00.360Z",
  "devdoc": {
    "kind": "dev",
    "methods": {
      "renounceOwnership()": {
        "details": "Allows the current owner to relinquish control of the contract."
      },
      "transferOwnership(address)": {
        "details": "Allows the current owner to transfer control of the contract to a newOwner.",
        "params": {
          "_newOwner": "The address to transfer ownership to."
        }
      }
    },
    "version": 1
  },
  "userdoc": {
    "kind": "user",
    "methods": {
      "renounceOwnership()": {
        "notice": "Renouncing to ownership will leave the contract without an owner. It will not be possible to call the functions with the `onlyOwner` modifier anymore."
      }
    },
    "version": 1
  }
}