{
  "contractName": "ZombieHelper",
  "abi": [
    {
      "anonymous": false,
      "inputs": [
        {
          "indexed": true,
          "internalType": "address",
          "name": "_owner",
          "type": "address"
        },
        {
          "indexed": true,
          "internalType": "address",
          "name": "_approved",
          "type": "address"
        },
        {
          "indexed": true,
          "internalType": "uint256",
          "name": "_tokenId",
          "type": "uint256"
        }
      ],
      "name": "Approval",
      "type": "event"
    },
    {
      "anonymous": false,
      "inputs": [
        {
          "indexed": false,
          "internalType": "uint256",
          "name": "zombieId",
          "type": "uint256"
        },
        {
          "indexed": false,
          "internalType": "string",
          "name": "name",
          "type": "string"
        },
        {
          "indexed": false,
          "internalType": "uint256",
          "name": "dna",
          "type": "uint256"
        }
      ],
      "name": "NewZombie",
      "type": "event"
    },
    {
      "anonymous": false,
      "inputs": [
        {
          "indexed": true,
          "internalType": "address",
          "name": "previousOwner",
          "type": "address"
        },
        {
          "indexed": true,
          "internalType": "address",
          "name": "newOwner",
          "type": "address"
        }
      ],
      "name": "OwnershipTransferred",
      "type": "event"
    },
    {
      "anonymous": false,
      "inputs": [
        {
          "indexed": true,
          "internalType": "address",
          "name": "_from",
          "type": "address"
        },
        {
          "indexed": true,
          "internalType": "address",
          "name": "_to",
          "type": "address"
        },
        {
          "indexed": true,
          "internalType": "uint256",
          "name": "_tokenId",
          "type": "uint256"
        }
      ],
      "name": "Transfer",
      "type": "event"
    },
    {
      "inputs": [
        {
          "internalType": "address",
          "name": "_approved",
          "type": "address"
        },
        {
          "internalType": "uint256",
          "name": "_tokenId",
          "type": "uint256"
        }
      ],
      "name": "approve",
      "outputs": [],
      "stateMutability": "payable",
      "type": "function"
    },
    {
      "inputs": [
        {
          "internalType": "address",
          "name": "_owner",
          "type": "address"
        }
      ],
      "name": "balanceOf",
      "outputs": [
        {
          "internalType": "uint256",
          "name": "",
          "type": "uint256"
        }
      ],
      "stateMutability": "view",
      "type": "function"
    },
    {
      "inputs": [
        {
          "internalType": "string",
          "name": "_name",
          "type": "string"
        }
      ],
      "name": "createRandomZombie",
      "outputs": [],
      "stateMutability": "nonpayable",
      "type": "function"
    },
    {
      "inputs": [],
      "name": "fee",
      "outputs": [
        {
          "internalType": "uint256",
          "name": "",
          "type": "uint256"
        }
      ],
      "stateMutability": "view",
      "type": "function"
    },
    {
      "inputs": [
        {
          "internalType": "uint256",
          "name": "_zombieId",
          "type": "uint256"
        },
        {
          "internalType": "uint256",
          "name": "_kittyId",
          "type": "uint256"
        }
      ],
      "name": "feedOnKitty",
      "outputs": [],
      "stateMutability": "nonpayable",
      "type": "function"
    },
    {
      "inputs": [],
      "name": "keyHash",
      "outputs": [
        {
          "internalType": "bytes32",
          "name": "",
          "type": "bytes32"
        }
      ],
      "stateMutability": "view",
      "type": "function"
    },
    {
      "inputs": [],
      "name": "owner",
      "outputs": [
        {
          "internalType": "address",
          "name": "",
          "type": "address"
        }
      ],
      "stateMutability": "view",
      "type": "function"
    },
    {
      "inputs": [
        {
          "internalType": "uint256",
          "name": "_tokenId",
          "type": "uint256"
        }
      ],
      "name": "ownerOf",
      "outputs": [
        {
          "internalType": "address",
          "name": "",
          "type": "address"
        }
      ],
      "stateMutability": "view",
      "type": "function"
    },
    {
      "inputs": [],
      "name": "randomResult",
      "outputs": [
        {
          "internalType": "uint256",
          "name": "",
          "type": "uint256"
        }
      ],
      "stateMutability": "view",
      "type": "function"
    },
    {
      "inputs": [],
      "name": "renounceOwnership",
      "outputs": [],
      "stateMutability": "nonpayable",
      "type": "function"
    },
    {
      "inputs": [
        {
          "internalType": "address",
          "name": "_address",
          "type": "address"
        }
      ],
      "name": "setKittyContractAddress",
      "outputs": [],
      "stateMutability": "nonpayable",
      "type": "function"
    },
    {
      "inputs": [
        {
          "internalType": "address",
          "name": "_from",
          "type": "address"
        },
        {
          "internalType": "address",
          "name": "_to",
          "type": "address"
        },
        {
          "internalType": "uint256",
          "name": "_tokenId",
          "type": "uint256"
        }
      ],
      "name": "transferFrom",
      "outputs": [],
      "stateMutability": "payable",
      "type": "function"
    },
    {
      "inputs": [
        {
          "internalType": "address",
          "name": "_newOwner",
          "type": "address"
        }
      ],
      "name": "transferOwnership",
      "outputs": [],
      "stateMutability": "nonpayable",
      "type": "function"
    },
    {
      "inputs": [
        {
          "internalType": "uint256",
          "name": "",
          "type": "uint256"
        }
      ],
      "name": "zombieToOwner",
      "outputs": [
        {
          "internalType": "address",
          "name": "",
          "type": "address"
        }
      ],
      "stateMutability": "view",
      "type": "function"
    },
    {
      "inputs": [
        {
          "internalType": "uint256",
          "name": "",
          "type": "uint256"
        }
      ],
      "name": "zombies",
      "outputs": [
        {
          "internalType": "string",
          "name": "name",
          "type": "string"
        },
        {
          "internalType": "uint256",
          "name": "dna",
          "type": "uint256"
        },
        {
          "internalType": "uint32",
          "name": "level",
          "type": "uint32"
        },
        {
          "internalType": "uint32",
          "name": "readyTime",
          "type": "uint32"
        },
        {
          "internalType": "uint16",
          "name": "winCount",
          "type": "uint16"
        },
        {
          "internalType": "uint16",
          "name": "lossCount",
          "type": "uint16"
        }
      ],
      "stateMutability": "view",
      "type": "function"
    },
    {
      "inputs": [
        {
          "internalType": "uint256",
          "name": "_fee",
          "type": "uint256"
        }
      ],
      "name": "setLevelUpFee",
      "outputs": [],
      "stateMutability": "nonpayable",
      "type": "function"
    },
    {
      "inputs": [
        {
          "internalType": "uint256",
          "name": "_zombieId",
          "type": "uint256"
        }
      ],
      "name": "levelUp",
      "outputs": [],
      "stateMutability": "payable",
      "type": "function"
    },
    {
      "inputs": [
        {
          "internalType": "uint256",
          "name": "_zombieId",
          "type": "uint256"
        },
        {
          "internalType": "string",
          "name": "_newName",
          "type": "string"
        }
      ],
      "name": "changeName",
      "outputs": [],
      "stateMutability": "nonpayable",
      "type": "function"
    },
    {
      "inputs": [
        {
          "internalType": "uint256",
          "name": "_zombieId",
          "type": "uint256"
        },
        {
          "internalType": "uint256",
          "name": "_newDna",
          "type": "uint256"
        }
      ],
      "name": "changeDna",
      "outputs": [],
      "stateMutability": "nonpayable",
      "type": "function"
    },
    {
      "inputs": [
        {
          "internalType": "address",
          "name": "_owner",
          "type": "address"
        }
      ],
      "name": "getZombiesByOwner",
      "outputs": [
        {
          "internalType": "uint256[]",
          "name": "",
          "type": "uint256[]"
        }
      ],
      "stateMutability": "view",
      "type": "function"
    }
  ],
  "bytecode": "0x60806040526010600155600154600a6200001a919062000210565b6002556201518060035566038d7ea4c68000600c553480156200003c57600080fd5b50336000806101000a81548173ffffffffffffffffffffffffffffffffffffffff021916908373ffffffffffffffffffffffffffffffffffffffff16021790555062000261565b7f4e487b7100000000000000000000000000000000000000000000000000000000600052601160045260246000fd5b60008160011c9050919050565b6000808291508390505b60018511156200011157808604811115620000e957620000e862000083565b5b6001851615620000f95780820291505b80810290506200010985620000b2565b9450620000c9565b94509492505050565b6000826200012c5760019050620001ff565b816200013c5760009050620001ff565b8160018114620001555760028114620001605762000196565b6001915050620001ff565b60ff84111562000175576200017462000083565b5b8360020a9150848211156200018f576200018e62000083565b5b50620001ff565b5060208310610133831016604e8410600b8410161715620001d05782820a905083811115620001ca57620001c962000083565b5b620001ff565b620001df8484846001620000bf565b92509050818404811115620001f957620001f862000083565b5b81810290505b9392505050565b6000819050919050565b60006200021d8262000206565b91506200022a8362000206565b9250620002597fffffffffffffffffffffffffffffffffffffffffffffffffffffffffffffffff84846200011a565b905092915050565b61246580620002716000396000f3fe60806040526004361061011f5760003560e01c806361728f39116100a05780638da5cb5b116100645780638da5cb5b146103bf578063c39cbef1146103ea578063ccf670f814610413578063ddca3f431461043c578063f2fde38b146104675761011f565b806361728f39146102da5780636352211e1461030557806370a0823114610342578063715018a61461037f5780637bff0a01146103965761011f565b806342619f66116100e757806342619f66146101e35780634412e1041461020e578063528b7b8f1461024b5780635f4623f1146102885780635faf2880146102b15761011f565b8063095ea7b3146101245780630ce90ec21461014057806317a7f4cc1461015c5780632052465e1461018557806323b872dd146101c7575b600080fd5b61013e60048036038101906101399190611985565b610490565b005b61015a600480360381019061015591906119c5565b610541565b005b34801561016857600080fd5b50610183600480360381019061017e91906119f2565b6105b6565b005b34801561019157600080fd5b506101ac60048036038101906101a791906119c5565b6106d4565b6040516101be96959493929190611b16565b60405180910390f35b6101e160048036038101906101dc9190611b7e565b6107e4565b005b3480156101ef57600080fd5b506101f86108c8565b6040516102059190611bd1565b60405180910390f35b34801561021a57600080fd5b5061023560048036038101906102309190611bec565b6108ce565b6040516102429190611cd7565b60405180910390f35b34801561025757600080fd5b50610272600480360381019061026d91906119c5565b610a20565b60405161027f9190611d08565b60405180910390f35b34801561029457600080fd5b506102af60048036038101906102aa9190611bec565b610a53565b005b3480156102bd57600080fd5b506102d860048036038101906102d391906119f2565b610aef565b005b3480156102e657600080fd5b506102ef610bd7565b6040516102fc9190611d3c565b60405180910390f35b34801561031157600080fd5b5061032c600480360381019061032791906119c5565b610bdd565b6040516103399190611d08565b60405180910390f35b34801561034e57600080fd5b5061036960048036038101906103649190611bec565b610c1a565b6040516103769190611bd1565b60405180910390f35b34801561038b57600080fd5b50610394610c63565b005b3480156103a257600080fd5b506103bd60048036038101906103b89190611e8c565b610d79565b005b3480156103cb57600080fd5b506103d4610dfc565b6040516103e19190611d08565b60405180910390f35b3480156103f657600080fd5b50610411600480360381019061040c9190611f35565b610e20565b005b34801561041f57600080fd5b5061043a600480360381019061043591906119c5565b610f14565b005b34801561044857600080fd5b50610451610f76565b60405161045e9190611bd1565b60405180910390f35b34801561047357600080fd5b5061048e60048036038101906104899190611bec565b610f7c565b005b81600a600083815260200190815260200160002060006101000a81548173ffffffffffffffffffffffffffffffffffffffff021916908373ffffffffffffffffffffffffffffffffffffffff160217905550808273ffffffffffffffffffffffffffffffffffffffff163373ffffffffffffffffffffffffffffffffffffffff167f8c5be1e5ebec7d5bd14f71427d1e84f3dd0314c0f7b2291e5b200ac8c7c3b92560405160405180910390a45050565b600c54341461054f57600080fd5b6007818154811061056357610562611f95565b5b9060005260206000209060030201600201600081819054906101000a900463ffffffff168092919061059490611ff3565b91906101000a81548163ffffffff021916908363ffffffff1602179055505050565b6000600b60009054906101000a900473ffffffffffffffffffffffffffffffffffffffff1673ffffffffffffffffffffffffffffffffffffffff1663e98b7f4d836040518263ffffffff1660e01b81526004016106139190611bd1565b61014060405180830381865afa158015610631573d6000803e3d6000fd5b505050506040513d601f19601f82011682018060405250810190610655919061206c565b909192939495969798509091929394959697509091929394959650909192939495509091929394509091929350909192509091509050809150506106cf83826040518060400160405280600581526020017f6b69747479000000000000000000000000000000000000000000000000000000815250610fe0565b505050565b600781815481106106e457600080fd5b90600052602060002090600302016000915090508060000180546107079061217a565b80601f01602080910402602001604051908101604052809291908181526020018280546107339061217a565b80156107805780601f1061075557610100808354040283529160200191610780565b820191906000526020600020905b81548152906001019060200180831161076357829003601f168201915b5050505050908060010154908060020160009054906101000a900463ffffffff16908060020160049054906101000a900463ffffffff16908060020160089054906101000a900461ffff169080600201600a9054906101000a900461ffff16905086565b3373ffffffffffffffffffffffffffffffffffffffff166008600083815260200190815260200160002060009054906101000a900473ffffffffffffffffffffffffffffffffffffffff1673ffffffffffffffffffffffffffffffffffffffff1614806108af57503373ffffffffffffffffffffffffffffffffffffffff16600a600083815260200190815260200160002060009054906101000a900473ffffffffffffffffffffffffffffffffffffffff1673ffffffffffffffffffffffffffffffffffffffff16145b6108b857600080fd5b6108c383838361117c565b505050565b60065481565b60606000600960008473ffffffffffffffffffffffffffffffffffffffff1673ffffffffffffffffffffffffffffffffffffffff1681526020019081526020016000205467ffffffffffffffff81111561092b5761092a611d61565b5b6040519080825280602002602001820160405280156109595781602001602082028036833780820191505090505b5090506000805b600780549050811015610a15578473ffffffffffffffffffffffffffffffffffffffff166008600083815260200190815260200160002060009054906101000a900473ffffffffffffffffffffffffffffffffffffffff1673ffffffffffffffffffffffffffffffffffffffff1603610a0257808383815181106109e7576109e6611f95565b5b60200260200101818152505081806109fe906121ab565b9250505b8080610a0d906121ab565b915050610960565b508192505050919050565b60086020528060005260406000206000915054906101000a900473ffffffffffffffffffffffffffffffffffffffff1681565b60008054906101000a900473ffffffffffffffffffffffffffffffffffffffff1673ffffffffffffffffffffffffffffffffffffffff163373ffffffffffffffffffffffffffffffffffffffff1614610aab57600080fd5b80600b60006101000a81548173ffffffffffffffffffffffffffffffffffffffff021916908373ffffffffffffffffffffffffffffffffffffffff16021790555050565b6014828160078281548110610b0757610b06611f95565b5b906000526020600020906003020160020160009054906101000a900463ffffffff1663ffffffff161015610b3a57600080fd5b836008600082815260200190815260200160002060009054906101000a900473ffffffffffffffffffffffffffffffffffffffff1673ffffffffffffffffffffffffffffffffffffffff163373ffffffffffffffffffffffffffffffffffffffff1614610ba657600080fd5b8360078681548110610bbb57610bba611f95565b5b9060005260206000209060030201600101819055505050505050565b60045481565b60006008600083815260200190815260200160002060009054906101000a900473ffffffffffffffffffffffffffffffffffffffff169050919050565b6000600960008373ffffffffffffffffffffffffffffffffffffffff1673ffffffffffffffffffffffffffffffffffffffff168152602001908152602001600020549050919050565b60008054906101000a900473ffffffffffffffffffffffffffffffffffffffff1673ffffffffffffffffffffffffffffffffffffffff163373ffffffffffffffffffffffffffffffffffffffff1614610cbb57600080fd5b600073ffffffffffffffffffffffffffffffffffffffff1660008054906101000a900473ffffffffffffffffffffffffffffffffffffffff1673ffffffffffffffffffffffffffffffffffffffff167f8be0079c531659141344cd1fd0a4f28419497f9722a3daafe3b4186f6b6457e060405160405180910390a360008060006101000a81548173ffffffffffffffffffffffffffffffffffffffff021916908373ffffffffffffffffffffffffffffffffffffffff160217905550565b6000600960003373ffffffffffffffffffffffffffffffffffffffff1673ffffffffffffffffffffffffffffffffffffffff1681526020019081526020016000205414610dc557600080fd5b6000610dd08261135a565b9050606481610ddf9190612222565b81610dea9190612253565b9050610df88260065461139f565b5050565b60008054906101000a900473ffffffffffffffffffffffffffffffffffffffff1681565b6002838160078281548110610e3857610e37611f95565b5b906000526020600020906003020160020160009054906101000a900463ffffffff1663ffffffff161015610e6b57600080fd5b846008600082815260200190815260200160002060009054906101000a900473ffffffffffffffffffffffffffffffffffffffff1673ffffffffffffffffffffffffffffffffffffffff163373ffffffffffffffffffffffffffffffffffffffff1614610ed757600080fd5b848460078881548110610eed57610eec611f95565b5b90600052602060002090600302016000019190610f0b9291906117b4565b50505050505050565b60008054906101000a900473ffffffffffffffffffffffffffffffffffffffff1673ffffffffffffffffffffffffffffffffffffffff163373ffffffffffffffffffffffffffffffffffffffff1614610f6c57600080fd5b80600c8190555050565b60055481565b60008054906101000a900473ffffffffffffffffffffffffffffffffffffffff1673ffffffffffffffffffffffffffffffffffffffff163373ffffffffffffffffffffffffffffffffffffffff1614610fd457600080fd5b610fdd81611616565b50565b826008600082815260200190815260200160002060009054906101000a900473ffffffffffffffffffffffffffffffffffffffff1673ffffffffffffffffffffffffffffffffffffffff163373ffffffffffffffffffffffffffffffffffffffff161461104c57600080fd5b60006007858154811061106257611061611f95565b5b9060005260206000209060030201905061107b8161170c565b61108457600080fd5b600254846110929190612222565b9350600060028583600101546110a89190612287565b6110b291906122dd565b90506040516020016110c390612365565b60405160208183030381529060405280519060200120846040516020016110ea91906123ab565b604051602081830303815290604052805190602001200361112c5760636064826111149190612222565b8261111f9190612253565b6111299190612287565b90505b61116b6040518060400160405280600681526020017f4e6f4e616d6500000000000000000000000000000000000000000000000000008152508261139f565b61117482611733565b505050505050565b6111cf6001600960008573ffffffffffffffffffffffffffffffffffffffff1673ffffffffffffffffffffffffffffffffffffffff1681526020019081526020016000205461176690919063ffffffff16565b600960008473ffffffffffffffffffffffffffffffffffffffff1673ffffffffffffffffffffffffffffffffffffffff168152602001908152602001600020819055506112656001600960003373ffffffffffffffffffffffffffffffffffffffff1673ffffffffffffffffffffffffffffffffffffffff1681526020019081526020016000205461178d90919063ffffffff16565b600960003373ffffffffffffffffffffffffffffffffffffffff1673ffffffffffffffffffffffffffffffffffffffff16815260200190815260200160002081905550816008600083815260200190815260200160002060006101000a81548173ffffffffffffffffffffffffffffffffffffffff021916908373ffffffffffffffffffffffffffffffffffffffff160217905550808273ffffffffffffffffffffffffffffffffffffffff168473ffffffffffffffffffffffffffffffffffffffff167fddf252ad1be2c89b69c2b068fc378daa952ba7f163c4a11628f55a4df523b3ef60405160405180910390a4505050565b6000808260405160200161136e91906123ab565b6040516020818303038152906040528051906020012060001c9050600254816113979190612222565b915050919050565b60076040518060c00160405280848152602001838152602001600163ffffffff168152602001600354426113d39190612287565b63ffffffff168152602001600061ffff168152602001600061ffff168152509080600181540180825580915050600190039060005260206000209060030201600090919091909150600082015181600001908051906020019061143792919061183a565b506020820151816001015560408201518160020160006101000a81548163ffffffff021916908363ffffffff16021790555060608201518160020160046101000a81548163ffffffff021916908363ffffffff16021790555060808201518160020160086101000a81548161ffff021916908361ffff16021790555060a082015181600201600a6101000a81548161ffff021916908361ffff1602179055505050600060016007805490506114ec9190612253565b9050336008600083815260200190815260200160002060006101000a81548173ffffffffffffffffffffffffffffffffffffffff021916908373ffffffffffffffffffffffffffffffffffffffff1602179055506115936001600960003373ffffffffffffffffffffffffffffffffffffffff1673ffffffffffffffffffffffffffffffffffffffff1681526020019081526020016000205461176690919063ffffffff16565b600960003373ffffffffffffffffffffffffffffffffffffffff1673ffffffffffffffffffffffffffffffffffffffff168152602001908152602001600020819055507f88f026aacbbecc90c18411df4b1185fd8d9be2470f1962f192bf84a27d0704b7818484604051611609939291906123c2565b60405180910390a1505050565b600073ffffffffffffffffffffffffffffffffffffffff168173ffffffffffffffffffffffffffffffffffffffff160361164f57600080fd5b8073ffffffffffffffffffffffffffffffffffffffff1660008054906101000a900473ffffffffffffffffffffffffffffffffffffffff1673ffffffffffffffffffffffffffffffffffffffff167f8be0079c531659141344cd1fd0a4f28419497f9722a3daafe3b4186f6b6457e060405160405180910390a3806000806101000a81548173ffffffffffffffffffffffffffffffffffffffff021916908373ffffffffffffffffffffffffffffffffffffffff16021790555050565b6000428260020160049054906101000a900463ffffffff1663ffffffff1611159050919050565b600354426117419190612287565b8160020160046101000a81548163ffffffff021916908363ffffffff16021790555050565b600081836117749190612287565b90508281101561178757611786612400565b5b92915050565b6000828211156117a05761179f612400565b5b81836117ac9190612253565b905092915050565b8280546117c09061217a565b90600052602060002090601f0160209004810192826117e25760008555611829565b82601f106117fb57803560ff1916838001178555611829565b82800160010185558215611829579182015b8281111561182857823582559160200191906001019061180d565b5b50905061183691906118c0565b5090565b8280546118469061217a565b90600052602060002090601f01602090048101928261186857600085556118af565b82601f1061188157805160ff19168380011785556118af565b828001600101855582156118af579182015b828111156118ae578251825591602001919060010190611893565b5b5090506118bc91906118c0565b5090565b5b808211156118d95760008160009055506001016118c1565b5090565b6000604051905090565b600080fd5b600080fd5b600073ffffffffffffffffffffffffffffffffffffffff82169050919050565b600061191c826118f1565b9050919050565b61192c81611911565b811461193757600080fd5b50565b60008135905061194981611923565b92915050565b6000819050919050565b6119628161194f565b811461196d57600080fd5b50565b60008135905061197f81611959565b92915050565b6000806040838503121561199c5761199b6118e7565b5b60006119aa8582860161193a565b92505060206119bb85828601611970565b9150509250929050565b6000602082840312156119db576119da6118e7565b5b60006119e984828501611970565b91505092915050565b60008060408385031215611a0957611a086118e7565b5b6000611a1785828601611970565b9250506020611a2885828601611970565b9150509250929050565b600081519050919050565b600082825260208201905092915050565b60005b83811015611a6c578082015181840152602081019050611a51565b83811115611a7b576000848401525b50505050565b6000601f19601f8301169050919050565b6000611a9d82611a32565b611aa78185611a3d565b9350611ab7818560208601611a4e565b611ac081611a81565b840191505092915050565b611ad48161194f565b82525050565b600063ffffffff82169050919050565b611af381611ada565b82525050565b600061ffff82169050919050565b611b1081611af9565b82525050565b600060c0820190508181036000830152611b308189611a92565b9050611b3f6020830188611acb565b611b4c6040830187611aea565b611b596060830186611aea565b611b666080830185611b07565b611b7360a0830184611b07565b979650505050505050565b600080600060608486031215611b9757611b966118e7565b5b6000611ba58682870161193a565b9350506020611bb68682870161193a565b9250506040611bc786828701611970565b9150509250925092565b6000602082019050611be66000830184611acb565b92915050565b600060208284031215611c0257611c016118e7565b5b6000611c108482850161193a565b91505092915050565b600081519050919050565b600082825260208201905092915050565b6000819050602082019050919050565b611c4e8161194f565b82525050565b6000611c608383611c45565b60208301905092915050565b6000602082019050919050565b6000611c8482611c19565b611c8e8185611c24565b9350611c9983611c35565b8060005b83811015611cca578151611cb18882611c54565b9750611cbc83611c6c565b925050600181019050611c9d565b5085935050505092915050565b60006020820190508181036000830152611cf18184611c79565b905092915050565b611d0281611911565b82525050565b6000602082019050611d1d6000830184611cf9565b92915050565b6000819050919050565b611d3681611d23565b82525050565b6000602082019050611d516000830184611d2d565b92915050565b600080fd5b600080fd5b7f4e487b7100000000000000000000000000000000000000000000000000000000600052604160045260246000fd5b611d9982611a81565b810181811067ffffffffffffffff82111715611db857611db7611d61565b5b80604052505050565b6000611dcb6118dd565b9050611dd78282611d90565b919050565b600067ffffffffffffffff821115611df757611df6611d61565b5b611e0082611a81565b9050602081019050919050565b82818337600083830152505050565b6000611e2f611e2a84611ddc565b611dc1565b905082815260208101848484011115611e4b57611e4a611d5c565b5b611e56848285611e0d565b509392505050565b600082601f830112611e7357611e72611d57565b5b8135611e83848260208601611e1c565b91505092915050565b600060208284031215611ea257611ea16118e7565b5b600082013567ffffffffffffffff811115611ec057611ebf6118ec565b5b611ecc84828501611e5e565b91505092915050565b600080fd5b600080fd5b60008083601f840112611ef557611ef4611d57565b5b8235905067ffffffffffffffff811115611f1257611f11611ed5565b5b602083019150836001820283011115611f2e57611f2d611eda565b5b9250929050565b600080600060408486031215611f4e57611f4d6118e7565b5b6000611f5c86828701611970565b935050602084013567ffffffffffffffff811115611f7d57611f7c6118ec565b5b611f8986828701611edf565b92509250509250925092565b7f4e487b7100000000000000000000000000000000000000000000000000000000600052603260045260246000fd5b7f4e487b7100000000000000000000000000000000000000000000000000000000600052601160045260246000fd5b6000611ffe82611ada565b915063ffffffff820361201457612013611fc4565b5b600182019050919050565b60008115159050919050565b6120348161201f565b811461203f57600080fd5b50565b6000815190506120518161202b565b92915050565b60008151905061206681611959565b92915050565b6000806000806000806000806000806101408b8d0312156120905761208f6118e7565b5b600061209e8d828e01612042565b9a505060206120af8d828e01612042565b99505060406120c08d828e01612057565b98505060606120d18d828e01612057565b97505060806120e28d828e01612057565b96505060a06120f38d828e01612057565b95505060c06121048d828e01612057565b94505060e06121158d828e01612057565b9350506101006121278d828e01612057565b9250506101206121398d828e01612057565b9150509295989b9194979a5092959850565b7f4e487b7100000000000000000000000000000000000000000000000000000000600052602260045260246000fd5b6000600282049050600182168061219257607f821691505b6020821081036121a5576121a461214b565b5b50919050565b60006121b68261194f565b91507fffffffffffffffffffffffffffffffffffffffffffffffffffffffffffffffff82036121e8576121e7611fc4565b5b600182019050919050565b7f4e487b7100000000000000000000000000000000000000000000000000000000600052601260045260246000fd5b600061222d8261194f565b91506122388361194f565b925082612248576122476121f3565b5b828206905092915050565b600061225e8261194f565b91506122698361194f565b92508282101561227c5761227b611fc4565b5b828203905092915050565b60006122928261194f565b915061229d8361194f565b9250827fffffffffffffffffffffffffffffffffffffffffffffffffffffffffffffffff038211156122d2576122d1611fc4565b5b828201905092915050565b60006122e88261194f565b91506122f38361194f565b925082612303576123026121f3565b5b828204905092915050565b600081905092915050565b7f6b69747479000000000000000000000000000000000000000000000000000000600082015250565b600061234f60058361230e565b915061235a82612319565b600582019050919050565b600061237082612342565b9150819050919050565b600061238582611a32565b61238f818561230e565b935061239f818560208601611a4e565b80840191505092915050565b60006123b7828461237a565b915081905092915050565b60006060820190506123d76000830186611acb565b81810360208301526123e98185611a92565b90506123f86040830184611acb565b949350505050565b7f4e487b7100000000000000000000000000000000000000000000000000000000600052600160045260246000fdfea264697066735822122003ec106bcafc72db89b5fecd2e8734647f684697bebc9d1400f35e296c27c7f864736f6c634300080d0033",
  "immutableReferences": {},
  "source": "// SPDX-License-Identifier: MIT\r\npragma solidity >=0.4.22 <0.9.0;\r\n\r\nimport \"./ZombieFeeding.sol\";\r\n\r\ncontract ZombieHelper is ZombieFeeding {\r\n\r\n  uint levelUpFee = 0.001 ether;\r\n\r\n  modifier aboveLevel(uint _level, uint _zombieId) {\r\n    require(zombies[_zombieId].level >= _level);\r\n    _;\r\n  }\r\n\r\n  // function withdraw() external onlyOwner {\r\n  //   address _owner = msg.sender;\r\n  //   _owner.transfer(address(this).balance);\r\n  // }\r\n\r\n  function setLevelUpFee(uint _fee) external onlyOwner {\r\n    levelUpFee = _fee;\r\n  }\r\n\r\n  function levelUp(uint _zombieId) external payable {\r\n    require(msg.value == levelUpFee);\r\n    zombies[_zombieId].level++;\r\n  }\r\n\r\n  function changeName(uint _zombieId, string calldata _newName) external aboveLevel(2, _zombieId) onlyOwnerOf(_zombieId) {\r\n    zombies[_zombieId].name = _newName;\r\n  }\r\n\r\n  function changeDna(uint _zombieId, uint _newDna) external aboveLevel(20, _zombieId) onlyOwnerOf(_zombieId) {\r\n    zombies[_zombieId].dna = _newDna;\r\n  }\r\n\r\n  function getZombiesByOwner(address _owner) external view returns(uint[] memory) {\r\n    uint[] memory result = new uint[](ownerZombieCount[_owner]);\r\n    uint counter = 0;\r\n    for (uint i = 0; i < zombies.length; i++) {\r\n      if (zombieToOwner[i] == _owner) {\r\n        result[counter] = i;\r\n        counter++;\r\n      }\r\n    }\r\n    return result;\r\n  }\r\n\r\n}\r\n",
  "sourcePath": "D:\\test\\zombieDApp\\contracts\\ZombieHelper.sol",
  "compiler": {
    "name": "solc",
    "version": "0.8.13+commit.abaa5c0e.Emscripten.clang"
  },
  "schemaVersion": "3.4.7",
  "updatedAt": "2022-05-17T03:43:00.349Z",
  "devdoc": {
    "kind": "dev",
    "methods": {
      "renounceOwnership()": {
        "details": "Allows the current owner to relinquish control of the contract."
      },
      "transferOwnership(address)": {
        "details": "Allows the current owner to transfer control of the contract to a newOwner.",
        "params": {
          "_newOwner": "The address to transfer ownership to."
        }
      }
    },
    "version": 1
  },
  "userdoc": {
    "kind": "user",
    "methods": {
      "renounceOwnership()": {
        "notice": "Renouncing to ownership will leave the contract without an owner. It will not be possible to call the functions with the `onlyOwner` modifier anymore."
      }
    },
    "version": 1
  }
}