{
  "contractName": "ZombieFeeding",
  "abi": [
    {
      "anonymous": false,
      "inputs": [
        {
          "indexed": true,
          "internalType": "address",
          "name": "_owner",
          "type": "address"
        },
        {
          "indexed": true,
          "internalType": "address",
          "name": "_approved",
          "type": "address"
        },
        {
          "indexed": true,
          "internalType": "uint256",
          "name": "_tokenId",
          "type": "uint256"
        }
      ],
      "name": "Approval",
      "type": "event"
    },
    {
      "anonymous": false,
      "inputs": [
        {
          "indexed": false,
          "internalType": "uint256",
          "name": "zombieId",
          "type": "uint256"
        },
        {
          "indexed": false,
          "internalType": "string",
          "name": "name",
          "type": "string"
        },
        {
          "indexed": false,
          "internalType": "uint256",
          "name": "dna",
          "type": "uint256"
        }
      ],
      "name": "NewZombie",
      "type": "event"
    },
    {
      "anonymous": false,
      "inputs": [
        {
          "indexed": true,
          "internalType": "address",
          "name": "previousOwner",
          "type": "address"
        },
        {
          "indexed": true,
          "internalType": "address",
          "name": "newOwner",
          "type": "address"
        }
      ],
      "name": "OwnershipTransferred",
      "type": "event"
    },
    {
      "anonymous": false,
      "inputs": [
        {
          "indexed": true,
          "internalType": "address",
          "name": "_from",
          "type": "address"
        },
        {
          "indexed": true,
          "internalType": "address",
          "name": "_to",
          "type": "address"
        },
        {
          "indexed": true,
          "internalType": "uint256",
          "name": "_tokenId",
          "type": "uint256"
        }
      ],
      "name": "Transfer",
      "type": "event"
    },
    {
      "inputs": [
        {
          "internalType": "address",
          "name": "_approved",
          "type": "address"
        },
        {
          "internalType": "uint256",
          "name": "_tokenId",
          "type": "uint256"
        }
      ],
      "name": "approve",
      "outputs": [],
      "stateMutability": "payable",
      "type": "function"
    },
    {
      "inputs": [
        {
          "internalType": "address",
          "name": "_owner",
          "type": "address"
        }
      ],
      "name": "balanceOf",
      "outputs": [
        {
          "internalType": "uint256",
          "name": "",
          "type": "uint256"
        }
      ],
      "stateMutability": "view",
      "type": "function"
    },
    {
      "inputs": [
        {
          "internalType": "string",
          "name": "_name",
          "type": "string"
        }
      ],
      "name": "createRandomZombie",
      "outputs": [],
      "stateMutability": "nonpayable",
      "type": "function"
    },
    {
      "inputs": [],
      "name": "fee",
      "outputs": [
        {
          "internalType": "uint256",
          "name": "",
          "type": "uint256"
        }
      ],
      "stateMutability": "view",
      "type": "function"
    },
    {
      "inputs": [],
      "name": "keyHash",
      "outputs": [
        {
          "internalType": "bytes32",
          "name": "",
          "type": "bytes32"
        }
      ],
      "stateMutability": "view",
      "type": "function"
    },
    {
      "inputs": [],
      "name": "owner",
      "outputs": [
        {
          "internalType": "address",
          "name": "",
          "type": "address"
        }
      ],
      "stateMutability": "view",
      "type": "function"
    },
    {
      "inputs": [
        {
          "internalType": "uint256",
          "name": "_tokenId",
          "type": "uint256"
        }
      ],
      "name": "ownerOf",
      "outputs": [
        {
          "internalType": "address",
          "name": "",
          "type": "address"
        }
      ],
      "stateMutability": "view",
      "type": "function"
    },
    {
      "inputs": [],
      "name": "randomResult",
      "outputs": [
        {
          "internalType": "uint256",
          "name": "",
          "type": "uint256"
        }
      ],
      "stateMutability": "view",
      "type": "function"
    },
    {
      "inputs": [],
      "name": "renounceOwnership",
      "outputs": [],
      "stateMutability": "nonpayable",
      "type": "function"
    },
    {
      "inputs": [
        {
          "internalType": "address",
          "name": "_from",
          "type": "address"
        },
        {
          "internalType": "address",
          "name": "_to",
          "type": "address"
        },
        {
          "internalType": "uint256",
          "name": "_tokenId",
          "type": "uint256"
        }
      ],
      "name": "transferFrom",
      "outputs": [],
      "stateMutability": "payable",
      "type": "function"
    },
    {
      "inputs": [
        {
          "internalType": "address",
          "name": "_newOwner",
          "type": "address"
        }
      ],
      "name": "transferOwnership",
      "outputs": [],
      "stateMutability": "nonpayable",
      "type": "function"
    },
    {
      "inputs": [
        {
          "internalType": "uint256",
          "name": "",
          "type": "uint256"
        }
      ],
      "name": "zombieToOwner",
      "outputs": [
        {
          "internalType": "address",
          "name": "",
          "type": "address"
        }
      ],
      "stateMutability": "view",
      "type": "function"
    },
    {
      "inputs": [
        {
          "internalType": "uint256",
          "name": "",
          "type": "uint256"
        }
      ],
      "name": "zombies",
      "outputs": [
        {
          "internalType": "string",
          "name": "name",
          "type": "string"
        },
        {
          "internalType": "uint256",
          "name": "dna",
          "type": "uint256"
        },
        {
          "internalType": "uint32",
          "name": "level",
          "type": "uint32"
        },
        {
          "internalType": "uint32",
          "name": "readyTime",
          "type": "uint32"
        },
        {
          "internalType": "uint16",
          "name": "winCount",
          "type": "uint16"
        },
        {
          "internalType": "uint16",
          "name": "lossCount",
          "type": "uint16"
        }
      ],
      "stateMutability": "view",
      "type": "function"
    },
    {
      "inputs": [
        {
          "internalType": "address",
          "name": "_address",
          "type": "address"
        }
      ],
      "name": "setKittyContractAddress",
      "outputs": [],
      "stateMutability": "nonpayable",
      "type": "function"
    },
    {
      "inputs": [
        {
          "internalType": "uint256",
          "name": "_zombieId",
          "type": "uint256"
        },
        {
          "internalType": "uint256",
          "name": "_kittyId",
          "type": "uint256"
        }
      ],
      "name": "feedOnKitty",
      "outputs": [],
      "stateMutability": "nonpayable",
      "type": "function"
    }
  ],
  "bytecode": "0x60806040526010600155600154600a6200001a919062000205565b600255620151806003553480156200003157600080fd5b50336000806101000a81548173ffffffffffffffffffffffffffffffffffffffff021916908373ffffffffffffffffffffffffffffffffffffffff16021790555062000256565b7f4e487b7100000000000000000000000000000000000000000000000000000000600052601160045260246000fd5b60008160011c9050919050565b6000808291508390505b60018511156200010657808604811115620000de57620000dd62000078565b5b6001851615620000ee5780820291505b8081029050620000fe85620000a7565b9450620000be565b94509492505050565b600082620001215760019050620001f4565b81620001315760009050620001f4565b81600181146200014a576002811462000155576200018b565b6001915050620001f4565b60ff8411156200016a576200016962000078565b5b8360020a91508482111562000184576200018362000078565b5b50620001f4565b5060208310610133831016604e8410600b8410161715620001c55782820a905083811115620001bf57620001be62000078565b5b620001f4565b620001d48484846001620000b4565b92509050818404811115620001ee57620001ed62000078565b5b81810290505b9392505050565b6000819050919050565b60006200021282620001fb565b91506200021f83620001fb565b92506200024e7fffffffffffffffffffffffffffffffffffffffffffffffffffffffffffffffff84846200010f565b905092915050565b611cbb80620002666000396000f3fe6080604052600436106100e85760003560e01c806361728f391161008a5780637bff0a01116100595780637bff0a01146102dd5780638da5cb5b14610306578063ddca3f4314610331578063f2fde38b1461035c576100e8565b806361728f39146102215780636352211e1461024c57806370a0823114610289578063715018a6146102c6576100e8565b806323b872dd116100c657806323b872dd1461017457806342619f6614610190578063528b7b8f146101bb5780635f4623f1146101f8576100e8565b8063095ea7b3146100ed57806317a7f4cc146101095780632052465e14610132575b600080fd5b610107600480360381019061010291906113ef565b610385565b005b34801561011557600080fd5b50610130600480360381019061012b919061142f565b610436565b005b34801561013e57600080fd5b506101596004803603810190610154919061146f565b610554565b60405161016b96959493929190611580565b60405180910390f35b61018e600480360381019061018991906115e8565b610664565b005b34801561019c57600080fd5b506101a5610748565b6040516101b2919061163b565b60405180910390f35b3480156101c757600080fd5b506101e260048036038101906101dd919061146f565b61074e565b6040516101ef9190611665565b60405180910390f35b34801561020457600080fd5b5061021f600480360381019061021a9190611680565b610781565b005b34801561022d57600080fd5b5061023661081d565b60405161024391906116c6565b60405180910390f35b34801561025857600080fd5b50610273600480360381019061026e919061146f565b610823565b6040516102809190611665565b60405180910390f35b34801561029557600080fd5b506102b060048036038101906102ab9190611680565b610860565b6040516102bd919061163b565b60405180910390f35b3480156102d257600080fd5b506102db6108a9565b005b3480156102e957600080fd5b5061030460048036038101906102ff9190611816565b6109bf565b005b34801561031257600080fd5b5061031b610a42565b6040516103289190611665565b60405180910390f35b34801561033d57600080fd5b50610346610a66565b604051610353919061163b565b60405180910390f35b34801561036857600080fd5b50610383600480360381019061037e9190611680565b610a6c565b005b81600a600083815260200190815260200160002060006101000a81548173ffffffffffffffffffffffffffffffffffffffff021916908373ffffffffffffffffffffffffffffffffffffffff160217905550808273ffffffffffffffffffffffffffffffffffffffff163373ffffffffffffffffffffffffffffffffffffffff167f8c5be1e5ebec7d5bd14f71427d1e84f3dd0314c0f7b2291e5b200ac8c7c3b92560405160405180910390a45050565b6000600b60009054906101000a900473ffffffffffffffffffffffffffffffffffffffff1673ffffffffffffffffffffffffffffffffffffffff1663e98b7f4d836040518263ffffffff1660e01b8152600401610493919061163b565b61014060405180830381865afa1580156104b1573d6000803e3d6000fd5b505050506040513d601f19601f820116820180604052508101906104d591906118ac565b9091929394959697985090919293949596975090919293949596509091929394955090919293945090919293509091925090915090508091505061054f83826040518060400160405280600581526020017f6b69747479000000000000000000000000000000000000000000000000000000815250610ad0565b505050565b6007818154811061056457600080fd5b9060005260206000209060030201600091509050806000018054610587906119ba565b80601f01602080910402602001604051908101604052809291908181526020018280546105b3906119ba565b80156106005780601f106105d557610100808354040283529160200191610600565b820191906000526020600020905b8154815290600101906020018083116105e357829003601f168201915b5050505050908060010154908060020160009054906101000a900463ffffffff16908060020160049054906101000a900463ffffffff16908060020160089054906101000a900461ffff169080600201600a9054906101000a900461ffff16905086565b3373ffffffffffffffffffffffffffffffffffffffff166008600083815260200190815260200160002060009054906101000a900473ffffffffffffffffffffffffffffffffffffffff1673ffffffffffffffffffffffffffffffffffffffff16148061072f57503373ffffffffffffffffffffffffffffffffffffffff16600a600083815260200190815260200160002060009054906101000a900473ffffffffffffffffffffffffffffffffffffffff1673ffffffffffffffffffffffffffffffffffffffff16145b61073857600080fd5b610743838383610c6c565b505050565b60065481565b60086020528060005260406000206000915054906101000a900473ffffffffffffffffffffffffffffffffffffffff1681565b60008054906101000a900473ffffffffffffffffffffffffffffffffffffffff1673ffffffffffffffffffffffffffffffffffffffff163373ffffffffffffffffffffffffffffffffffffffff16146107d957600080fd5b80600b60006101000a81548173ffffffffffffffffffffffffffffffffffffffff021916908373ffffffffffffffffffffffffffffffffffffffff16021790555050565b60045481565b60006008600083815260200190815260200160002060009054906101000a900473ffffffffffffffffffffffffffffffffffffffff169050919050565b6000600960008373ffffffffffffffffffffffffffffffffffffffff1673ffffffffffffffffffffffffffffffffffffffff168152602001908152602001600020549050919050565b60008054906101000a900473ffffffffffffffffffffffffffffffffffffffff1673ffffffffffffffffffffffffffffffffffffffff163373ffffffffffffffffffffffffffffffffffffffff161461090157600080fd5b600073ffffffffffffffffffffffffffffffffffffffff1660008054906101000a900473ffffffffffffffffffffffffffffffffffffffff1673ffffffffffffffffffffffffffffffffffffffff167f8be0079c531659141344cd1fd0a4f28419497f9722a3daafe3b4186f6b6457e060405160405180910390a360008060006101000a81548173ffffffffffffffffffffffffffffffffffffffff021916908373ffffffffffffffffffffffffffffffffffffffff160217905550565b6000600960003373ffffffffffffffffffffffffffffffffffffffff1673ffffffffffffffffffffffffffffffffffffffff1681526020019081526020016000205414610a0b57600080fd5b6000610a1682610e4a565b9050606481610a259190611a1a565b81610a309190611a7a565b9050610a3e82600654610e8f565b5050565b60008054906101000a900473ffffffffffffffffffffffffffffffffffffffff1681565b60055481565b60008054906101000a900473ffffffffffffffffffffffffffffffffffffffff1673ffffffffffffffffffffffffffffffffffffffff163373ffffffffffffffffffffffffffffffffffffffff1614610ac457600080fd5b610acd81611106565b50565b826008600082815260200190815260200160002060009054906101000a900473ffffffffffffffffffffffffffffffffffffffff1673ffffffffffffffffffffffffffffffffffffffff163373ffffffffffffffffffffffffffffffffffffffff1614610b3c57600080fd5b600060078581548110610b5257610b51611aae565b5b90600052602060002090600302019050610b6b816111fc565b610b7457600080fd5b60025484610b829190611a1a565b935060006002858360010154610b989190611add565b610ba29190611b33565b9050604051602001610bb390611bbb565b6040516020818303038152906040528051906020012084604051602001610bda9190611c01565b6040516020818303038152906040528051906020012003610c1c576063606482610c049190611a1a565b82610c0f9190611a7a565b610c199190611add565b90505b610c5b6040518060400160405280600681526020017f4e6f4e616d65000000000000000000000000000000000000000000000000000081525082610e8f565b610c6482611223565b505050505050565b610cbf6001600960008573ffffffffffffffffffffffffffffffffffffffff1673ffffffffffffffffffffffffffffffffffffffff1681526020019081526020016000205461125690919063ffffffff16565b600960008473ffffffffffffffffffffffffffffffffffffffff1673ffffffffffffffffffffffffffffffffffffffff16815260200190815260200160002081905550610d556001600960003373ffffffffffffffffffffffffffffffffffffffff1673ffffffffffffffffffffffffffffffffffffffff1681526020019081526020016000205461127d90919063ffffffff16565b600960003373ffffffffffffffffffffffffffffffffffffffff1673ffffffffffffffffffffffffffffffffffffffff16815260200190815260200160002081905550816008600083815260200190815260200160002060006101000a81548173ffffffffffffffffffffffffffffffffffffffff021916908373ffffffffffffffffffffffffffffffffffffffff160217905550808273ffffffffffffffffffffffffffffffffffffffff168473ffffffffffffffffffffffffffffffffffffffff167fddf252ad1be2c89b69c2b068fc378daa952ba7f163c4a11628f55a4df523b3ef60405160405180910390a4505050565b60008082604051602001610e5e9190611c01565b6040516020818303038152906040528051906020012060001c905060025481610e879190611a1a565b915050919050565b60076040518060c00160405280848152602001838152602001600163ffffffff16815260200160035442610ec39190611add565b63ffffffff168152602001600061ffff168152602001600061ffff1681525090806001815401808255809150506001900390600052602060002090600302016000909190919091506000820151816000019080519060200190610f279291906112a4565b506020820151816001015560408201518160020160006101000a81548163ffffffff021916908363ffffffff16021790555060608201518160020160046101000a81548163ffffffff021916908363ffffffff16021790555060808201518160020160086101000a81548161ffff021916908361ffff16021790555060a082015181600201600a6101000a81548161ffff021916908361ffff160217905550505060006001600780549050610fdc9190611a7a565b9050336008600083815260200190815260200160002060006101000a81548173ffffffffffffffffffffffffffffffffffffffff021916908373ffffffffffffffffffffffffffffffffffffffff1602179055506110836001600960003373ffffffffffffffffffffffffffffffffffffffff1673ffffffffffffffffffffffffffffffffffffffff1681526020019081526020016000205461125690919063ffffffff16565b600960003373ffffffffffffffffffffffffffffffffffffffff1673ffffffffffffffffffffffffffffffffffffffff168152602001908152602001600020819055507f88f026aacbbecc90c18411df4b1185fd8d9be2470f1962f192bf84a27d0704b78184846040516110f993929190611c18565b60405180910390a1505050565b600073ffffffffffffffffffffffffffffffffffffffff168173ffffffffffffffffffffffffffffffffffffffff160361113f57600080fd5b8073ffffffffffffffffffffffffffffffffffffffff1660008054906101000a900473ffffffffffffffffffffffffffffffffffffffff1673ffffffffffffffffffffffffffffffffffffffff167f8be0079c531659141344cd1fd0a4f28419497f9722a3daafe3b4186f6b6457e060405160405180910390a3806000806101000a81548173ffffffffffffffffffffffffffffffffffffffff021916908373ffffffffffffffffffffffffffffffffffffffff16021790555050565b6000428260020160049054906101000a900463ffffffff1663ffffffff1611159050919050565b600354426112319190611add565b8160020160046101000a81548163ffffffff021916908363ffffffff16021790555050565b600081836112649190611add565b90508281101561127757611276611c56565b5b92915050565b6000828211156112905761128f611c56565b5b818361129c9190611a7a565b905092915050565b8280546112b0906119ba565b90600052602060002090601f0160209004810192826112d25760008555611319565b82601f106112eb57805160ff1916838001178555611319565b82800160010185558215611319579182015b828111156113185782518255916020019190600101906112fd565b5b509050611326919061132a565b5090565b5b8082111561134357600081600090555060010161132b565b5090565b6000604051905090565b600080fd5b600080fd5b600073ffffffffffffffffffffffffffffffffffffffff82169050919050565b60006113868261135b565b9050919050565b6113968161137b565b81146113a157600080fd5b50565b6000813590506113b38161138d565b92915050565b6000819050919050565b6113cc816113b9565b81146113d757600080fd5b50565b6000813590506113e9816113c3565b92915050565b6000806040838503121561140657611405611351565b5b6000611414858286016113a4565b9250506020611425858286016113da565b9150509250929050565b6000806040838503121561144657611445611351565b5b6000611454858286016113da565b9250506020611465858286016113da565b9150509250929050565b60006020828403121561148557611484611351565b5b6000611493848285016113da565b91505092915050565b600081519050919050565b600082825260208201905092915050565b60005b838110156114d65780820151818401526020810190506114bb565b838111156114e5576000848401525b50505050565b6000601f19601f8301169050919050565b60006115078261149c565b61151181856114a7565b93506115218185602086016114b8565b61152a816114eb565b840191505092915050565b61153e816113b9565b82525050565b600063ffffffff82169050919050565b61155d81611544565b82525050565b600061ffff82169050919050565b61157a81611563565b82525050565b600060c082019050818103600083015261159a81896114fc565b90506115a96020830188611535565b6115b66040830187611554565b6115c36060830186611554565b6115d06080830185611571565b6115dd60a0830184611571565b979650505050505050565b60008060006060848603121561160157611600611351565b5b600061160f868287016113a4565b9350506020611620868287016113a4565b9250506040611631868287016113da565b9150509250925092565b60006020820190506116506000830184611535565b92915050565b61165f8161137b565b82525050565b600060208201905061167a6000830184611656565b92915050565b60006020828403121561169657611695611351565b5b60006116a4848285016113a4565b91505092915050565b6000819050919050565b6116c0816116ad565b82525050565b60006020820190506116db60008301846116b7565b92915050565b600080fd5b600080fd5b7f4e487b7100000000000000000000000000000000000000000000000000000000600052604160045260246000fd5b611723826114eb565b810181811067ffffffffffffffff82111715611742576117416116eb565b5b80604052505050565b6000611755611347565b9050611761828261171a565b919050565b600067ffffffffffffffff821115611781576117806116eb565b5b61178a826114eb565b9050602081019050919050565b82818337600083830152505050565b60006117b96117b484611766565b61174b565b9050828152602081018484840111156117d5576117d46116e6565b5b6117e0848285611797565b509392505050565b600082601f8301126117fd576117fc6116e1565b5b813561180d8482602086016117a6565b91505092915050565b60006020828403121561182c5761182b611351565b5b600082013567ffffffffffffffff81111561184a57611849611356565b5b611856848285016117e8565b91505092915050565b60008115159050919050565b6118748161185f565b811461187f57600080fd5b50565b6000815190506118918161186b565b92915050565b6000815190506118a6816113c3565b92915050565b6000806000806000806000806000806101408b8d0312156118d0576118cf611351565b5b60006118de8d828e01611882565b9a505060206118ef8d828e01611882565b99505060406119008d828e01611897565b98505060606119118d828e01611897565b97505060806119228d828e01611897565b96505060a06119338d828e01611897565b95505060c06119448d828e01611897565b94505060e06119558d828e01611897565b9350506101006119678d828e01611897565b9250506101206119798d828e01611897565b9150509295989b9194979a5092959850565b7f4e487b7100000000000000000000000000000000000000000000000000000000600052602260045260246000fd5b600060028204905060018216806119d257607f821691505b6020821081036119e5576119e461198b565b5b50919050565b7f4e487b7100000000000000000000000000000000000000000000000000000000600052601260045260246000fd5b6000611a25826113b9565b9150611a30836113b9565b925082611a4057611a3f6119eb565b5b828206905092915050565b7f4e487b7100000000000000000000000000000000000000000000000000000000600052601160045260246000fd5b6000611a85826113b9565b9150611a90836113b9565b925082821015611aa357611aa2611a4b565b5b828203905092915050565b7f4e487b7100000000000000000000000000000000000000000000000000000000600052603260045260246000fd5b6000611ae8826113b9565b9150611af3836113b9565b9250827fffffffffffffffffffffffffffffffffffffffffffffffffffffffffffffffff03821115611b2857611b27611a4b565b5b828201905092915050565b6000611b3e826113b9565b9150611b49836113b9565b925082611b5957611b586119eb565b5b828204905092915050565b600081905092915050565b7f6b69747479000000000000000000000000000000000000000000000000000000600082015250565b6000611ba5600583611b64565b9150611bb082611b6f565b600582019050919050565b6000611bc682611b98565b9150819050919050565b6000611bdb8261149c565b611be58185611b64565b9350611bf58185602086016114b8565b80840191505092915050565b6000611c0d8284611bd0565b915081905092915050565b6000606082019050611c2d6000830186611535565b8181036020830152611c3f81856114fc565b9050611c4e6040830184611535565b949350505050565b7f4e487b7100000000000000000000000000000000000000000000000000000000600052600160045260246000fdfea264697066735822122038e96bd0563db1bd4283380357663ac6f13e8f3d9cc11182e07446266189535e64736f6c634300080d0033",
  "immutableReferences": {},
  "source": "// SPDX-License-Identifier: MIT\r\npragma solidity >=0.4.22 <0.9.0;\r\n\r\nimport \"./ZombieFactory.sol\";\r\n\r\ninterface KittyInterface {\r\n  function getKitty(uint256 _id) external view returns (\r\n    bool isGestating,\r\n    bool isReady,\r\n    uint256 cooldownIndex,\r\n    uint256 nextActionAt,\r\n    uint256 siringWithId,\r\n    uint256 birthTime,\r\n    uint256 matronId,\r\n    uint256 sireId,\r\n    uint256 generation,\r\n    uint256 genes\r\n  );\r\n}\r\n\r\ncontract ZombieFeeding is ZombieFactory {\r\n\r\n  KittyInterface kittyContract;\r\n\r\n  modifier onlyOwnerOf(uint _zombieId) {\r\n    require(msg.sender == zombieToOwner[_zombieId]);\r\n    _;\r\n  }\r\n\r\n  function setKittyContractAddress(address _address) external onlyOwner {\r\n    kittyContract = KittyInterface(_address);\r\n  }\r\n\r\n  function _triggerCooldown(Zombie storage _zombie) internal {\r\n    _zombie.readyTime = uint32(block.timestamp + cooldownTime);\r\n  }\r\n\r\n  function _isReady(Zombie storage _zombie) internal view returns (bool) {\r\n      return (_zombie.readyTime <= block.timestamp);\r\n  }\r\n\r\n  function feedAndMultiply(uint _zombieId, uint _targetDna, string memory _species) internal onlyOwnerOf(_zombieId) {\r\n    Zombie storage myZombie = zombies[_zombieId];\r\n    require(_isReady(myZombie));\r\n    _targetDna = _targetDna % dnaModulus;\r\n    uint newDna = (myZombie.dna + _targetDna) / 2;\r\n    if (keccak256(abi.encodePacked(_species)) == keccak256(abi.encodePacked(\"kitty\"))) {\r\n      newDna = newDna - newDna % 100 + 99;\r\n    }\r\n    _createZombie(\"NoName\", newDna);\r\n    _triggerCooldown(myZombie);\r\n  }\r\n\r\n  function feedOnKitty(uint _zombieId, uint _kittyId) public {\r\n    uint kittyDna;\r\n    (,,,,,,,,,kittyDna) = kittyContract.getKitty(_kittyId);\r\n    feedAndMultiply(_zombieId, kittyDna, \"kitty\");\r\n  }\r\n}\r\n",
  "sourcePath": "D:\\test\\zombieDApp\\contracts\\ZombieFeeding.sol",
  "compiler": {
    "name": "solc",
    "version": "0.8.13+commit.abaa5c0e.Emscripten.clang"
  },
  "schemaVersion": "3.4.7",
  "updatedAt": "2022-05-17T03:43:00.343Z",
  "devdoc": {
    "kind": "dev",
    "methods": {
      "renounceOwnership()": {
        "details": "Allows the current owner to relinquish control of the contract."
      },
      "transferOwnership(address)": {
        "details": "Allows the current owner to transfer control of the contract to a newOwner.",
        "params": {
          "_newOwner": "The address to transfer ownership to."
        }
      }
    },
    "version": 1
  },
  "userdoc": {
    "kind": "user",
    "methods": {
      "renounceOwnership()": {
        "notice": "Renouncing to ownership will leave the contract without an owner. It will not be possible to call the functions with the `onlyOwner` modifier anymore."
      }
    },
    "version": 1
  }
}