{
  "contractName": "ZombieAttack",
  "abi": [
    {
      "anonymous": false,
      "inputs": [
        {
          "indexed": true,
          "internalType": "address",
          "name": "_owner",
          "type": "address"
        },
        {
          "indexed": true,
          "internalType": "address",
          "name": "_approved",
          "type": "address"
        },
        {
          "indexed": true,
          "internalType": "uint256",
          "name": "_tokenId",
          "type": "uint256"
        }
      ],
      "name": "Approval",
      "type": "event"
    },
    {
      "anonymous": false,
      "inputs": [
        {
          "indexed": false,
          "internalType": "uint256",
          "name": "zombieId",
          "type": "uint256"
        },
        {
          "indexed": false,
          "internalType": "string",
          "name": "name",
          "type": "string"
        },
        {
          "indexed": false,
          "internalType": "uint256",
          "name": "dna",
          "type": "uint256"
        }
      ],
      "name": "NewZombie",
      "type": "event"
    },
    {
      "anonymous": false,
      "inputs": [
        {
          "indexed": true,
          "internalType": "address",
          "name": "previousOwner",
          "type": "address"
        },
        {
          "indexed": true,
          "internalType": "address",
          "name": "newOwner",
          "type": "address"
        }
      ],
      "name": "OwnershipTransferred",
      "type": "event"
    },
    {
      "anonymous": false,
      "inputs": [
        {
          "indexed": true,
          "internalType": "address",
          "name": "_from",
          "type": "address"
        },
        {
          "indexed": true,
          "internalType": "address",
          "name": "_to",
          "type": "address"
        },
        {
          "indexed": true,
          "internalType": "uint256",
          "name": "_tokenId",
          "type": "uint256"
        }
      ],
      "name": "Transfer",
      "type": "event"
    },
    {
      "inputs": [
        {
          "internalType": "address",
          "name": "_approved",
          "type": "address"
        },
        {
          "internalType": "uint256",
          "name": "_tokenId",
          "type": "uint256"
        }
      ],
      "name": "approve",
      "outputs": [],
      "stateMutability": "payable",
      "type": "function"
    },
    {
      "inputs": [
        {
          "internalType": "address",
          "name": "_owner",
          "type": "address"
        }
      ],
      "name": "balanceOf",
      "outputs": [
        {
          "internalType": "uint256",
          "name": "",
          "type": "uint256"
        }
      ],
      "stateMutability": "view",
      "type": "function"
    },
    {
      "inputs": [
        {
          "internalType": "uint256",
          "name": "_zombieId",
          "type": "uint256"
        },
        {
          "internalType": "uint256",
          "name": "_newDna",
          "type": "uint256"
        }
      ],
      "name": "changeDna",
      "outputs": [],
      "stateMutability": "nonpayable",
      "type": "function"
    },
    {
      "inputs": [
        {
          "internalType": "uint256",
          "name": "_zombieId",
          "type": "uint256"
        },
        {
          "internalType": "string",
          "name": "_newName",
          "type": "string"
        }
      ],
      "name": "changeName",
      "outputs": [],
      "stateMutability": "nonpayable",
      "type": "function"
    },
    {
      "inputs": [
        {
          "internalType": "string",
          "name": "_name",
          "type": "string"
        }
      ],
      "name": "createRandomZombie",
      "outputs": [],
      "stateMutability": "nonpayable",
      "type": "function"
    },
    {
      "inputs": [],
      "name": "fee",
      "outputs": [
        {
          "internalType": "uint256",
          "name": "",
          "type": "uint256"
        }
      ],
      "stateMutability": "view",
      "type": "function"
    },
    {
      "inputs": [
        {
          "internalType": "uint256",
          "name": "_zombieId",
          "type": "uint256"
        },
        {
          "internalType": "uint256",
          "name": "_kittyId",
          "type": "uint256"
        }
      ],
      "name": "feedOnKitty",
      "outputs": [],
      "stateMutability": "nonpayable",
      "type": "function"
    },
    {
      "inputs": [
        {
          "internalType": "address",
          "name": "_owner",
          "type": "address"
        }
      ],
      "name": "getZombiesByOwner",
      "outputs": [
        {
          "internalType": "uint256[]",
          "name": "",
          "type": "uint256[]"
        }
      ],
      "stateMutability": "view",
      "type": "function"
    },
    {
      "inputs": [],
      "name": "keyHash",
      "outputs": [
        {
          "internalType": "bytes32",
          "name": "",
          "type": "bytes32"
        }
      ],
      "stateMutability": "view",
      "type": "function"
    },
    {
      "inputs": [
        {
          "internalType": "uint256",
          "name": "_zombieId",
          "type": "uint256"
        }
      ],
      "name": "levelUp",
      "outputs": [],
      "stateMutability": "payable",
      "type": "function"
    },
    {
      "inputs": [],
      "name": "owner",
      "outputs": [
        {
          "internalType": "address",
          "name": "",
          "type": "address"
        }
      ],
      "stateMutability": "view",
      "type": "function"
    },
    {
      "inputs": [
        {
          "internalType": "uint256",
          "name": "_tokenId",
          "type": "uint256"
        }
      ],
      "name": "ownerOf",
      "outputs": [
        {
          "internalType": "address",
          "name": "",
          "type": "address"
        }
      ],
      "stateMutability": "view",
      "type": "function"
    },
    {
      "inputs": [],
      "name": "randomResult",
      "outputs": [
        {
          "internalType": "uint256",
          "name": "",
          "type": "uint256"
        }
      ],
      "stateMutability": "view",
      "type": "function"
    },
    {
      "inputs": [],
      "name": "renounceOwnership",
      "outputs": [],
      "stateMutability": "nonpayable",
      "type": "function"
    },
    {
      "inputs": [
        {
          "internalType": "address",
          "name": "_address",
          "type": "address"
        }
      ],
      "name": "setKittyContractAddress",
      "outputs": [],
      "stateMutability": "nonpayable",
      "type": "function"
    },
    {
      "inputs": [
        {
          "internalType": "uint256",
          "name": "_fee",
          "type": "uint256"
        }
      ],
      "name": "setLevelUpFee",
      "outputs": [],
      "stateMutability": "nonpayable",
      "type": "function"
    },
    {
      "inputs": [
        {
          "internalType": "address",
          "name": "_from",
          "type": "address"
        },
        {
          "internalType": "address",
          "name": "_to",
          "type": "address"
        },
        {
          "internalType": "uint256",
          "name": "_tokenId",
          "type": "uint256"
        }
      ],
      "name": "transferFrom",
      "outputs": [],
      "stateMutability": "payable",
      "type": "function"
    },
    {
      "inputs": [
        {
          "internalType": "address",
          "name": "_newOwner",
          "type": "address"
        }
      ],
      "name": "transferOwnership",
      "outputs": [],
      "stateMutability": "nonpayable",
      "type": "function"
    },
    {
      "inputs": [
        {
          "internalType": "uint256",
          "name": "",
          "type": "uint256"
        }
      ],
      "name": "zombieToOwner",
      "outputs": [
        {
          "internalType": "address",
          "name": "",
          "type": "address"
        }
      ],
      "stateMutability": "view",
      "type": "function"
    },
    {
      "inputs": [
        {
          "internalType": "uint256",
          "name": "",
          "type": "uint256"
        }
      ],
      "name": "zombies",
      "outputs": [
        {
          "internalType": "string",
          "name": "name",
          "type": "string"
        },
        {
          "internalType": "uint256",
          "name": "dna",
          "type": "uint256"
        },
        {
          "internalType": "uint32",
          "name": "level",
          "type": "uint32"
        },
        {
          "internalType": "uint32",
          "name": "readyTime",
          "type": "uint32"
        },
        {
          "internalType": "uint16",
          "name": "winCount",
          "type": "uint16"
        },
        {
          "internalType": "uint16",
          "name": "lossCount",
          "type": "uint16"
        }
      ],
      "stateMutability": "view",
      "type": "function"
    },
    {
      "inputs": [
        {
          "internalType": "uint256",
          "name": "_zombieId",
          "type": "uint256"
        },
        {
          "internalType": "uint256",
          "name": "_targetId",
          "type": "uint256"
        }
      ],
      "name": "attack",
      "outputs": [],
      "stateMutability": "nonpayable",
      "type": "function"
    }
  ],
  "bytecode": "0x60806040526010600155600154600a6200001a91906200021a565b6002556201518060035566038d7ea4c68000600c556000600d556046600e553480156200004657600080fd5b50336000806101000a81548173ffffffffffffffffffffffffffffffffffffffff021916908373ffffffffffffffffffffffffffffffffffffffff1602179055506200026b565b7f4e487b7100000000000000000000000000000000000000000000000000000000600052601160045260246000fd5b60008160011c9050919050565b6000808291508390505b60018511156200011b57808604811115620000f357620000f26200008d565b5b6001851615620001035780820291505b80810290506200011385620000bc565b9450620000d3565b94509492505050565b60008262000136576001905062000209565b8162000146576000905062000209565b81600181146200015f57600281146200016a57620001a0565b600191505062000209565b60ff8411156200017f576200017e6200008d565b5b8360020a9150848211156200019957620001986200008d565b5b5062000209565b5060208310610133831016604e8410600b8410161715620001da5782820a905083811115620001d457620001d36200008d565b5b62000209565b620001e98484846001620000c9565b925090508184048111156200020357620002026200008d565b5b81810290505b9392505050565b6000819050919050565b6000620002278262000210565b9150620002348362000210565b9250620002637fffffffffffffffffffffffffffffffffffffffffffffffffffffffffffffffff848462000124565b905092915050565b61290d806200027b6000396000f3fe60806040526004361061012a5760003560e01c806361728f39116100ab5780638da5cb5b1161006f5780638da5cb5b146103ca578063c39cbef1146103f5578063ccf670f81461041e578063ddca3f4314610447578063e1fa763814610472578063f2fde38b1461049b5761012a565b806361728f39146102e55780636352211e1461031057806370a082311461034d578063715018a61461038a5780637bff0a01146103a15761012a565b806342619f66116100f257806342619f66146101ee5780634412e10414610219578063528b7b8f146102565780635f4623f1146102935780635faf2880146102bc5761012a565b8063095ea7b31461012f5780630ce90ec21461014b57806317a7f4cc146101675780632052465e1461019057806323b872dd146101d2575b600080fd5b61014960048036038101906101449190611d15565b6104c4565b005b61016560048036038101906101609190611d55565b610575565b005b34801561017357600080fd5b5061018e60048036038101906101899190611d82565b6105ea565b005b34801561019c57600080fd5b506101b760048036038101906101b29190611d55565b610708565b6040516101c996959493929190611ea6565b60405180910390f35b6101ec60048036038101906101e79190611f0e565b610818565b005b3480156101fa57600080fd5b506102036108fc565b6040516102109190611f61565b60405180910390f35b34801561022557600080fd5b50610240600480360381019061023b9190611f7c565b610902565b60405161024d9190612067565b60405180910390f35b34801561026257600080fd5b5061027d60048036038101906102789190611d55565b610a54565b60405161028a9190612098565b60405180910390f35b34801561029f57600080fd5b506102ba60048036038101906102b59190611f7c565b610a87565b005b3480156102c857600080fd5b506102e360048036038101906102de9190611d82565b610b23565b005b3480156102f157600080fd5b506102fa610c0b565b60405161030791906120cc565b60405180910390f35b34801561031c57600080fd5b5061033760048036038101906103329190611d55565b610c11565b6040516103449190612098565b60405180910390f35b34801561035957600080fd5b50610374600480360381019061036f9190611f7c565b610c4e565b6040516103819190611f61565b60405180910390f35b34801561039657600080fd5b5061039f610c97565b005b3480156103ad57600080fd5b506103c860048036038101906103c3919061221c565b610dad565b005b3480156103d657600080fd5b506103df610e30565b6040516103ec9190612098565b60405180910390f35b34801561040157600080fd5b5061041c600480360381019061041791906122c5565b610e54565b005b34801561042a57600080fd5b5061044560048036038101906104409190611d55565b610f48565b005b34801561045357600080fd5b5061045c610faa565b6040516104699190611f61565b60405180910390f35b34801561047e57600080fd5b5061049960048036038101906104949190611d82565b610fb0565b005b3480156104a757600080fd5b506104c260048036038101906104bd9190611f7c565b61124a565b005b81600a600083815260200190815260200160002060006101000a81548173ffffffffffffffffffffffffffffffffffffffff021916908373ffffffffffffffffffffffffffffffffffffffff160217905550808273ffffffffffffffffffffffffffffffffffffffff163373ffffffffffffffffffffffffffffffffffffffff167f8c5be1e5ebec7d5bd14f71427d1e84f3dd0314c0f7b2291e5b200ac8c7c3b92560405160405180910390a45050565b600c54341461058357600080fd5b6007818154811061059757610596612325565b5b9060005260206000209060030201600201600081819054906101000a900463ffffffff16809291906105c890612383565b91906101000a81548163ffffffff021916908363ffffffff1602179055505050565b6000600b60009054906101000a900473ffffffffffffffffffffffffffffffffffffffff1673ffffffffffffffffffffffffffffffffffffffff1663e98b7f4d836040518263ffffffff1660e01b81526004016106479190611f61565b61014060405180830381865afa158015610665573d6000803e3d6000fd5b505050506040513d601f19601f8201168201806040525081019061068991906123fc565b9091929394959697985090919293949596975090919293949596509091929394955090919293945090919293509091925090915090508091505061070383826040518060400160405280600581526020017f6b697474790000000000000000000000000000000000000000000000000000008152506112ae565b505050565b6007818154811061071857600080fd5b906000526020600020906003020160009150905080600001805461073b9061250a565b80601f01602080910402602001604051908101604052809291908181526020018280546107679061250a565b80156107b45780601f10610789576101008083540402835291602001916107b4565b820191906000526020600020905b81548152906001019060200180831161079757829003601f168201915b5050505050908060010154908060020160009054906101000a900463ffffffff16908060020160049054906101000a900463ffffffff16908060020160089054906101000a900461ffff169080600201600a9054906101000a900461ffff16905086565b3373ffffffffffffffffffffffffffffffffffffffff166008600083815260200190815260200160002060009054906101000a900473ffffffffffffffffffffffffffffffffffffffff1673ffffffffffffffffffffffffffffffffffffffff1614806108e357503373ffffffffffffffffffffffffffffffffffffffff16600a600083815260200190815260200160002060009054906101000a900473ffffffffffffffffffffffffffffffffffffffff1673ffffffffffffffffffffffffffffffffffffffff16145b6108ec57600080fd5b6108f783838361144a565b505050565b60065481565b60606000600960008473ffffffffffffffffffffffffffffffffffffffff1673ffffffffffffffffffffffffffffffffffffffff1681526020019081526020016000205467ffffffffffffffff81111561095f5761095e6120f1565b5b60405190808252806020026020018201604052801561098d5781602001602082028036833780820191505090505b5090506000805b600780549050811015610a49578473ffffffffffffffffffffffffffffffffffffffff166008600083815260200190815260200160002060009054906101000a900473ffffffffffffffffffffffffffffffffffffffff1673ffffffffffffffffffffffffffffffffffffffff1603610a365780838381518110610a1b57610a1a612325565b5b6020026020010181815250508180610a329061253b565b9250505b8080610a419061253b565b915050610994565b508192505050919050565b60086020528060005260406000206000915054906101000a900473ffffffffffffffffffffffffffffffffffffffff1681565b60008054906101000a900473ffffffffffffffffffffffffffffffffffffffff1673ffffffffffffffffffffffffffffffffffffffff163373ffffffffffffffffffffffffffffffffffffffff1614610adf57600080fd5b80600b60006101000a81548173ffffffffffffffffffffffffffffffffffffffff021916908373ffffffffffffffffffffffffffffffffffffffff16021790555050565b6014828160078281548110610b3b57610b3a612325565b5b906000526020600020906003020160020160009054906101000a900463ffffffff1663ffffffff161015610b6e57600080fd5b836008600082815260200190815260200160002060009054906101000a900473ffffffffffffffffffffffffffffffffffffffff1673ffffffffffffffffffffffffffffffffffffffff163373ffffffffffffffffffffffffffffffffffffffff1614610bda57600080fd5b8360078681548110610bef57610bee612325565b5b9060005260206000209060030201600101819055505050505050565b60045481565b60006008600083815260200190815260200160002060009054906101000a900473ffffffffffffffffffffffffffffffffffffffff169050919050565b6000600960008373ffffffffffffffffffffffffffffffffffffffff1673ffffffffffffffffffffffffffffffffffffffff168152602001908152602001600020549050919050565b60008054906101000a900473ffffffffffffffffffffffffffffffffffffffff1673ffffffffffffffffffffffffffffffffffffffff163373ffffffffffffffffffffffffffffffffffffffff1614610cef57600080fd5b600073ffffffffffffffffffffffffffffffffffffffff1660008054906101000a900473ffffffffffffffffffffffffffffffffffffffff1673ffffffffffffffffffffffffffffffffffffffff167f8be0079c531659141344cd1fd0a4f28419497f9722a3daafe3b4186f6b6457e060405160405180910390a360008060006101000a81548173ffffffffffffffffffffffffffffffffffffffff021916908373ffffffffffffffffffffffffffffffffffffffff160217905550565b6000600960003373ffffffffffffffffffffffffffffffffffffffff1673ffffffffffffffffffffffffffffffffffffffff1681526020019081526020016000205414610df957600080fd5b6000610e0482611628565b9050606481610e1391906125b2565b81610e1e91906125e3565b9050610e2c8260065461166d565b5050565b60008054906101000a900473ffffffffffffffffffffffffffffffffffffffff1681565b6002838160078281548110610e6c57610e6b612325565b5b906000526020600020906003020160020160009054906101000a900463ffffffff1663ffffffff161015610e9f57600080fd5b846008600082815260200190815260200160002060009054906101000a900473ffffffffffffffffffffffffffffffffffffffff1673ffffffffffffffffffffffffffffffffffffffff163373ffffffffffffffffffffffffffffffffffffffff1614610f0b57600080fd5b848460078881548110610f2157610f20612325565b5b90600052602060002090600302016000019190610f3f929190611b44565b50505050505050565b60008054906101000a900473ffffffffffffffffffffffffffffffffffffffff1673ffffffffffffffffffffffffffffffffffffffff163373ffffffffffffffffffffffffffffffffffffffff1614610fa057600080fd5b80600c8190555050565b60055481565b816008600082815260200190815260200160002060009054906101000a900473ffffffffffffffffffffffffffffffffffffffff1673ffffffffffffffffffffffffffffffffffffffff163373ffffffffffffffffffffffffffffffffffffffff161461101c57600080fd5b60006007848154811061103257611031612325565b5b9060005260206000209060030201905060006007848154811061105857611057612325565b5b90600052602060002090600302019050600061107460646118e4565b9050600e5481116111a8576110a960018460020160089054906101000a900461ffff1661ffff1661194490919063ffffffff16565b8360020160086101000a81548161ffff021916908361ffff1602179055506110f560018460020160009054906101000a900463ffffffff1663ffffffff1661197390919063ffffffff16565b8360020160006101000a81548163ffffffff021916908363ffffffff160217905550611141600183600201600a9054906101000a900461ffff1661ffff1661194490919063ffffffff16565b82600201600a6101000a81548161ffff021916908361ffff1602179055506111a38683600101546040518060400160405280600681526020017f7a6f6d62696500000000000000000000000000000000000000000000000000008152506112ae565b611242565b6111d2600184600201600a9054906101000a900461ffff1661ffff1661194490919063ffffffff16565b83600201600a6101000a81548161ffff021916908361ffff16021790555061121a60018360020160089054906101000a900461ffff1661ffff1661194490919063ffffffff16565b8260020160086101000a81548161ffff021916908361ffff160217905550611241836119a6565b5b505050505050565b60008054906101000a900473ffffffffffffffffffffffffffffffffffffffff1673ffffffffffffffffffffffffffffffffffffffff163373ffffffffffffffffffffffffffffffffffffffff16146112a257600080fd5b6112ab816119d9565b50565b826008600082815260200190815260200160002060009054906101000a900473ffffffffffffffffffffffffffffffffffffffff1673ffffffffffffffffffffffffffffffffffffffff163373ffffffffffffffffffffffffffffffffffffffff161461131a57600080fd5b6000600785815481106113305761132f612325565b5b9060005260206000209060030201905061134981611acf565b61135257600080fd5b6002548461136091906125b2565b9350600060028583600101546113769190612617565b611380919061266d565b9050604051602001611391906126f5565b60405160208183030381529060405280519060200120846040516020016113b8919061273b565b60405160208183030381529060405280519060200120036113fa5760636064826113e291906125b2565b826113ed91906125e3565b6113f79190612617565b90505b6114396040518060400160405280600681526020017f4e6f4e616d6500000000000000000000000000000000000000000000000000008152508261166d565b611442826119a6565b505050505050565b61149d6001600960008573ffffffffffffffffffffffffffffffffffffffff1673ffffffffffffffffffffffffffffffffffffffff16815260200190815260200160002054611af690919063ffffffff16565b600960008473ffffffffffffffffffffffffffffffffffffffff1673ffffffffffffffffffffffffffffffffffffffff168152602001908152602001600020819055506115336001600960003373ffffffffffffffffffffffffffffffffffffffff1673ffffffffffffffffffffffffffffffffffffffff16815260200190815260200160002054611b1d90919063ffffffff16565b600960003373ffffffffffffffffffffffffffffffffffffffff1673ffffffffffffffffffffffffffffffffffffffff16815260200190815260200160002081905550816008600083815260200190815260200160002060006101000a81548173ffffffffffffffffffffffffffffffffffffffff021916908373ffffffffffffffffffffffffffffffffffffffff160217905550808273ffffffffffffffffffffffffffffffffffffffff168473ffffffffffffffffffffffffffffffffffffffff167fddf252ad1be2c89b69c2b068fc378daa952ba7f163c4a11628f55a4df523b3ef60405160405180910390a4505050565b6000808260405160200161163c919061273b565b6040516020818303038152906040528051906020012060001c90506002548161166591906125b2565b915050919050565b60076040518060c00160405280848152602001838152602001600163ffffffff168152602001600354426116a19190612617565b63ffffffff168152602001600061ffff168152602001600061ffff1681525090806001815401808255809150506001900390600052602060002090600302016000909190919091506000820151816000019080519060200190611705929190611bca565b506020820151816001015560408201518160020160006101000a81548163ffffffff021916908363ffffffff16021790555060608201518160020160046101000a81548163ffffffff021916908363ffffffff16021790555060808201518160020160086101000a81548161ffff021916908361ffff16021790555060a082015181600201600a6101000a81548161ffff021916908361ffff1602179055505050600060016007805490506117ba91906125e3565b9050336008600083815260200190815260200160002060006101000a81548173ffffffffffffffffffffffffffffffffffffffff021916908373ffffffffffffffffffffffffffffffffffffffff1602179055506118616001600960003373ffffffffffffffffffffffffffffffffffffffff1673ffffffffffffffffffffffffffffffffffffffff16815260200190815260200160002054611af690919063ffffffff16565b600960003373ffffffffffffffffffffffffffffffffffffffff1673ffffffffffffffffffffffffffffffffffffffff168152602001908152602001600020819055507f88f026aacbbecc90c18411df4b1185fd8d9be2470f1962f192bf84a27d0704b78184846040516118d793929190612752565b60405180910390a1505050565b60006118fc6001600d54611af690919063ffffffff16565b600d81905550814233600d5460405160200161191a939291906127f9565b6040516020818303038152906040528051906020012060001c61193d91906125b2565b9050919050565b600081836119529190612836565b90508261ffff168161ffff16101561196d5761196c61286e565b5b92915050565b60008183611981919061289d565b90508263ffffffff168163ffffffff1610156119a05761199f61286e565b5b92915050565b600354426119b49190612617565b8160020160046101000a81548163ffffffff021916908363ffffffff16021790555050565b600073ffffffffffffffffffffffffffffffffffffffff168173ffffffffffffffffffffffffffffffffffffffff1603611a1257600080fd5b8073ffffffffffffffffffffffffffffffffffffffff1660008054906101000a900473ffffffffffffffffffffffffffffffffffffffff1673ffffffffffffffffffffffffffffffffffffffff167f8be0079c531659141344cd1fd0a4f28419497f9722a3daafe3b4186f6b6457e060405160405180910390a3806000806101000a81548173ffffffffffffffffffffffffffffffffffffffff021916908373ffffffffffffffffffffffffffffffffffffffff16021790555050565b6000428260020160049054906101000a900463ffffffff1663ffffffff1611159050919050565b60008183611b049190612617565b905082811015611b1757611b1661286e565b5b92915050565b600082821115611b3057611b2f61286e565b5b8183611b3c91906125e3565b905092915050565b828054611b509061250a565b90600052602060002090601f016020900481019282611b725760008555611bb9565b82601f10611b8b57803560ff1916838001178555611bb9565b82800160010185558215611bb9579182015b82811115611bb8578235825591602001919060010190611b9d565b5b509050611bc69190611c50565b5090565b828054611bd69061250a565b90600052602060002090601f016020900481019282611bf85760008555611c3f565b82601f10611c1157805160ff1916838001178555611c3f565b82800160010185558215611c3f579182015b82811115611c3e578251825591602001919060010190611c23565b5b509050611c4c9190611c50565b5090565b5b80821115611c69576000816000905550600101611c51565b5090565b6000604051905090565b600080fd5b600080fd5b600073ffffffffffffffffffffffffffffffffffffffff82169050919050565b6000611cac82611c81565b9050919050565b611cbc81611ca1565b8114611cc757600080fd5b50565b600081359050611cd981611cb3565b92915050565b6000819050919050565b611cf281611cdf565b8114611cfd57600080fd5b50565b600081359050611d0f81611ce9565b92915050565b60008060408385031215611d2c57611d2b611c77565b5b6000611d3a85828601611cca565b9250506020611d4b85828601611d00565b9150509250929050565b600060208284031215611d6b57611d6a611c77565b5b6000611d7984828501611d00565b91505092915050565b60008060408385031215611d9957611d98611c77565b5b6000611da785828601611d00565b9250506020611db885828601611d00565b9150509250929050565b600081519050919050565b600082825260208201905092915050565b60005b83811015611dfc578082015181840152602081019050611de1565b83811115611e0b576000848401525b50505050565b6000601f19601f8301169050919050565b6000611e2d82611dc2565b611e378185611dcd565b9350611e47818560208601611dde565b611e5081611e11565b840191505092915050565b611e6481611cdf565b82525050565b600063ffffffff82169050919050565b611e8381611e6a565b82525050565b600061ffff82169050919050565b611ea081611e89565b82525050565b600060c0820190508181036000830152611ec08189611e22565b9050611ecf6020830188611e5b565b611edc6040830187611e7a565b611ee96060830186611e7a565b611ef66080830185611e97565b611f0360a0830184611e97565b979650505050505050565b600080600060608486031215611f2757611f26611c77565b5b6000611f3586828701611cca565b9350506020611f4686828701611cca565b9250506040611f5786828701611d00565b9150509250925092565b6000602082019050611f766000830184611e5b565b92915050565b600060208284031215611f9257611f91611c77565b5b6000611fa084828501611cca565b91505092915050565b600081519050919050565b600082825260208201905092915050565b6000819050602082019050919050565b611fde81611cdf565b82525050565b6000611ff08383611fd5565b60208301905092915050565b6000602082019050919050565b600061201482611fa9565b61201e8185611fb4565b935061202983611fc5565b8060005b8381101561205a5781516120418882611fe4565b975061204c83611ffc565b92505060018101905061202d565b5085935050505092915050565b600060208201905081810360008301526120818184612009565b905092915050565b61209281611ca1565b82525050565b60006020820190506120ad6000830184612089565b92915050565b6000819050919050565b6120c6816120b3565b82525050565b60006020820190506120e160008301846120bd565b92915050565b600080fd5b600080fd5b7f4e487b7100000000000000000000000000000000000000000000000000000000600052604160045260246000fd5b61212982611e11565b810181811067ffffffffffffffff82111715612148576121476120f1565b5b80604052505050565b600061215b611c6d565b90506121678282612120565b919050565b600067ffffffffffffffff821115612187576121866120f1565b5b61219082611e11565b9050602081019050919050565b82818337600083830152505050565b60006121bf6121ba8461216c565b612151565b9050828152602081018484840111156121db576121da6120ec565b5b6121e684828561219d565b509392505050565b600082601f830112612203576122026120e7565b5b81356122138482602086016121ac565b91505092915050565b60006020828403121561223257612231611c77565b5b600082013567ffffffffffffffff8111156122505761224f611c7c565b5b61225c848285016121ee565b91505092915050565b600080fd5b600080fd5b60008083601f840112612285576122846120e7565b5b8235905067ffffffffffffffff8111156122a2576122a1612265565b5b6020830191508360018202830111156122be576122bd61226a565b5b9250929050565b6000806000604084860312156122de576122dd611c77565b5b60006122ec86828701611d00565b935050602084013567ffffffffffffffff81111561230d5761230c611c7c565b5b6123198682870161226f565b92509250509250925092565b7f4e487b7100000000000000000000000000000000000000000000000000000000600052603260045260246000fd5b7f4e487b7100000000000000000000000000000000000000000000000000000000600052601160045260246000fd5b600061238e82611e6a565b915063ffffffff82036123a4576123a3612354565b5b600182019050919050565b60008115159050919050565b6123c4816123af565b81146123cf57600080fd5b50565b6000815190506123e1816123bb565b92915050565b6000815190506123f681611ce9565b92915050565b6000806000806000806000806000806101408b8d0312156124205761241f611c77565b5b600061242e8d828e016123d2565b9a5050602061243f8d828e016123d2565b99505060406124508d828e016123e7565b98505060606124618d828e016123e7565b97505060806124728d828e016123e7565b96505060a06124838d828e016123e7565b95505060c06124948d828e016123e7565b94505060e06124a58d828e016123e7565b9350506101006124b78d828e016123e7565b9250506101206124c98d828e016123e7565b9150509295989b9194979a5092959850565b7f4e487b7100000000000000000000000000000000000000000000000000000000600052602260045260246000fd5b6000600282049050600182168061252257607f821691505b602082108103612535576125346124db565b5b50919050565b600061254682611cdf565b91507fffffffffffffffffffffffffffffffffffffffffffffffffffffffffffffffff820361257857612577612354565b5b600182019050919050565b7f4e487b7100000000000000000000000000000000000000000000000000000000600052601260045260246000fd5b60006125bd82611cdf565b91506125c883611cdf565b9250826125d8576125d7612583565b5b828206905092915050565b60006125ee82611cdf565b91506125f983611cdf565b92508282101561260c5761260b612354565b5b828203905092915050565b600061262282611cdf565b915061262d83611cdf565b9250827fffffffffffffffffffffffffffffffffffffffffffffffffffffffffffffffff0382111561266257612661612354565b5b828201905092915050565b600061267882611cdf565b915061268383611cdf565b92508261269357612692612583565b5b828204905092915050565b600081905092915050565b7f6b69747479000000000000000000000000000000000000000000000000000000600082015250565b60006126df60058361269e565b91506126ea826126a9565b600582019050919050565b6000612700826126d2565b9150819050919050565b600061271582611dc2565b61271f818561269e565b935061272f818560208601611dde565b80840191505092915050565b6000612747828461270a565b915081905092915050565b60006060820190506127676000830186611e5b565b81810360208301526127798185611e22565b90506127886040830184611e5b565b949350505050565b6000819050919050565b6127ab6127a682611cdf565b612790565b82525050565b60008160601b9050919050565b60006127c9826127b1565b9050919050565b60006127db826127be565b9050919050565b6127f36127ee82611ca1565b6127d0565b82525050565b6000612805828661279a565b60208201915061281582856127e2565b601482019150612825828461279a565b602082019150819050949350505050565b600061284182611e89565b915061284c83611e89565b92508261ffff0382111561286357612862612354565b5b828201905092915050565b7f4e487b7100000000000000000000000000000000000000000000000000000000600052600160045260246000fd5b60006128a882611e6a565b91506128b383611e6a565b92508263ffffffff038211156128cc576128cb612354565b5b82820190509291505056fea2646970667358221220edafae656d805dd31c6c5cf69c4bd727e89223381591d8924640e635662d13c964736f6c634300080d0033",
  "immutableReferences": {},
  "source": "// SPDX-License-Identifier: MIT\r\npragma solidity >=0.4.22 <0.9.0;\r\n\r\nimport \"./ZombieHelper.sol\";\r\nimport \"zeppelin-solidity/contracts/math/SafeMath.sol\";\r\nimport \"./asset/erc721.sol\";\r\n\r\ncontract ZombieAttack is ZombieHelper {\r\n  uint randNonce = 0;\r\n  uint attackVictoryProbability = 70;\r\n\r\n  using SafeMath for uint256;\r\n  using SafeMath32 for uint32;\r\n  using SafeMath16 for uint16;\r\n\r\n  function randMod(uint _modulus) internal returns(uint) {\r\n    randNonce = randNonce.add(1);\r\n    return uint(keccak256(abi.encodePacked(block.timestamp, msg.sender, randNonce))) % _modulus;\r\n  }\r\n\r\n  function attack(uint _zombieId, uint _targetId) external onlyOwnerOf(_zombieId) {\r\n    Zombie storage myZombie = zombies[_zombieId];\r\n    Zombie storage enemyZombie = zombies[_targetId];\r\n    uint rand = randMod(100);\r\n    if (rand <= attackVictoryProbability) {\r\n      myZombie.winCount = myZombie.winCount.add(1);\r\n      myZombie.level = myZombie.level.add(1);\r\n      enemyZombie.lossCount = enemyZombie.lossCount.add(1);\r\n      feedAndMultiply(_zombieId, enemyZombie.dna, \"zombie\");\r\n    } else {\r\n      myZombie.lossCount = myZombie.lossCount.add(1);\r\n      enemyZombie.winCount = enemyZombie.winCount.add(1);\r\n      _triggerCooldown(myZombie);\r\n    }\r\n  }\r\n}\r\n",
  "sourcePath": "D:\\test\\zombieDApp\\contracts\\ZombieAttack.sol",
  "compiler": {
    "name": "solc",
    "version": "0.8.13+commit.abaa5c0e.Emscripten.clang"
  },
  "schemaVersion": "3.4.7",
  "updatedAt": "2022-05-17T03:43:00.327Z",
  "devdoc": {
    "kind": "dev",
    "methods": {
      "renounceOwnership()": {
        "details": "Allows the current owner to relinquish control of the contract."
      },
      "transferOwnership(address)": {
        "details": "Allows the current owner to transfer control of the contract to a newOwner.",
        "params": {
          "_newOwner": "The address to transfer ownership to."
        }
      }
    },
    "version": 1
  },
  "userdoc": {
    "kind": "user",
    "methods": {
      "renounceOwnership()": {
        "notice": "Renouncing to ownership will leave the contract without an owner. It will not be possible to call the functions with the `onlyOwner` modifier anymore."
      }
    },
    "version": 1
  }
}