{
  "contractName": "ZombieFactory",
  "abi": [
    {
      "anonymous": false,
      "inputs": [
        {
          "indexed": true,
          "internalType": "address",
          "name": "_owner",
          "type": "address"
        },
        {
          "indexed": true,
          "internalType": "address",
          "name": "_approved",
          "type": "address"
        },
        {
          "indexed": true,
          "internalType": "uint256",
          "name": "_tokenId",
          "type": "uint256"
        }
      ],
      "name": "Approval",
      "type": "event"
    },
    {
      "anonymous": false,
      "inputs": [
        {
          "indexed": false,
          "internalType": "uint256",
          "name": "zombieId",
          "type": "uint256"
        },
        {
          "indexed": false,
          "internalType": "string",
          "name": "name",
          "type": "string"
        },
        {
          "indexed": false,
          "internalType": "uint256",
          "name": "dna",
          "type": "uint256"
        }
      ],
      "name": "NewZombie",
      "type": "event"
    },
    {
      "anonymous": false,
      "inputs": [
        {
          "indexed": true,
          "internalType": "address",
          "name": "previousOwner",
          "type": "address"
        },
        {
          "indexed": true,
          "internalType": "address",
          "name": "newOwner",
          "type": "address"
        }
      ],
      "name": "OwnershipTransferred",
      "type": "event"
    },
    {
      "anonymous": false,
      "inputs": [
        {
          "indexed": true,
          "internalType": "address",
          "name": "_from",
          "type": "address"
        },
        {
          "indexed": true,
          "internalType": "address",
          "name": "_to",
          "type": "address"
        },
        {
          "indexed": true,
          "internalType": "uint256",
          "name": "_tokenId",
          "type": "uint256"
        }
      ],
      "name": "Transfer",
      "type": "event"
    },
    {
      "inputs": [],
      "name": "fee",
      "outputs": [
        {
          "internalType": "uint256",
          "name": "",
          "type": "uint256"
        }
      ],
      "stateMutability": "view",
      "type": "function"
    },
    {
      "inputs": [],
      "name": "keyHash",
      "outputs": [
        {
          "internalType": "bytes32",
          "name": "",
          "type": "bytes32"
        }
      ],
      "stateMutability": "view",
      "type": "function"
    },
    {
      "inputs": [],
      "name": "owner",
      "outputs": [
        {
          "internalType": "address",
          "name": "",
          "type": "address"
        }
      ],
      "stateMutability": "view",
      "type": "function"
    },
    {
      "inputs": [],
      "name": "randomResult",
      "outputs": [
        {
          "internalType": "uint256",
          "name": "",
          "type": "uint256"
        }
      ],
      "stateMutability": "view",
      "type": "function"
    },
    {
      "inputs": [],
      "name": "renounceOwnership",
      "outputs": [],
      "stateMutability": "nonpayable",
      "type": "function"
    },
    {
      "inputs": [
        {
          "internalType": "address",
          "name": "_newOwner",
          "type": "address"
        }
      ],
      "name": "transferOwnership",
      "outputs": [],
      "stateMutability": "nonpayable",
      "type": "function"
    },
    {
      "inputs": [
        {
          "internalType": "uint256",
          "name": "",
          "type": "uint256"
        }
      ],
      "name": "zombieToOwner",
      "outputs": [
        {
          "internalType": "address",
          "name": "",
          "type": "address"
        }
      ],
      "stateMutability": "view",
      "type": "function"
    },
    {
      "inputs": [
        {
          "internalType": "uint256",
          "name": "",
          "type": "uint256"
        }
      ],
      "name": "zombies",
      "outputs": [
        {
          "internalType": "string",
          "name": "name",
          "type": "string"
        },
        {
          "internalType": "uint256",
          "name": "dna",
          "type": "uint256"
        },
        {
          "internalType": "uint32",
          "name": "level",
          "type": "uint32"
        },
        {
          "internalType": "uint32",
          "name": "readyTime",
          "type": "uint32"
        },
        {
          "internalType": "uint16",
          "name": "winCount",
          "type": "uint16"
        },
        {
          "internalType": "uint16",
          "name": "lossCount",
          "type": "uint16"
        }
      ],
      "stateMutability": "view",
      "type": "function"
    },
    {
      "inputs": [
        {
          "internalType": "string",
          "name": "_name",
          "type": "string"
        }
      ],
      "name": "createRandomZombie",
      "outputs": [],
      "stateMutability": "nonpayable",
      "type": "function"
    },
    {
      "inputs": [
        {
          "internalType": "address",
          "name": "_owner",
          "type": "address"
        }
      ],
      "name": "balanceOf",
      "outputs": [
        {
          "internalType": "uint256",
          "name": "",
          "type": "uint256"
        }
      ],
      "stateMutability": "view",
      "type": "function"
    },
    {
      "inputs": [
        {
          "internalType": "uint256",
          "name": "_tokenId",
          "type": "uint256"
        }
      ],
      "name": "ownerOf",
      "outputs": [
        {
          "internalType": "address",
          "name": "",
          "type": "address"
        }
      ],
      "stateMutability": "view",
      "type": "function"
    },
    {
      "inputs": [
        {
          "internalType": "address",
          "name": "_from",
          "type": "address"
        },
        {
          "internalType": "address",
          "name": "_to",
          "type": "address"
        },
        {
          "internalType": "uint256",
          "name": "_tokenId",
          "type": "uint256"
        }
      ],
      "name": "transferFrom",
      "outputs": [],
      "stateMutability": "payable",
      "type": "function"
    },
    {
      "inputs": [
        {
          "internalType": "address",
          "name": "_approved",
          "type": "address"
        },
        {
          "internalType": "uint256",
          "name": "_tokenId",
          "type": "uint256"
        }
      ],
      "name": "approve",
      "outputs": [],
      "stateMutability": "payable",
      "type": "function"
    }
  ],
  "bytecode": "0x60806040526010600155600154600a6200001a919062000205565b600255620151806003553480156200003157600080fd5b50336000806101000a81548173ffffffffffffffffffffffffffffffffffffffff021916908373ffffffffffffffffffffffffffffffffffffffff16021790555062000256565b7f4e487b7100000000000000000000000000000000000000000000000000000000600052601160045260246000fd5b60008160011c9050919050565b6000808291508390505b60018511156200010657808604811115620000de57620000dd62000078565b5b6001851615620000ee5780820291505b8081029050620000fe85620000a7565b9450620000be565b94509492505050565b600082620001215760019050620001f4565b81620001315760009050620001f4565b81600181146200014a576002811462000155576200018b565b6001915050620001f4565b60ff8411156200016a576200016962000078565b5b8360020a91508482111562000184576200018362000078565b5b50620001f4565b5060208310610133831016604e8410600b8410161715620001c55782820a905083811115620001bf57620001be62000078565b5b620001f4565b620001d48484846001620000b4565b92509050818404811115620001ee57620001ed62000078565b5b81810290505b9392505050565b6000819050919050565b60006200021282620001fb565b91506200021f83620001fb565b92506200024e7fffffffffffffffffffffffffffffffffffffffffffffffffffffffffffffffff84846200010f565b905092915050565b61166680620002666000396000f3fe6080604052600436106100c25760003560e01c80636352211e1161007f5780637bff0a01116100595780637bff0a01146102655780638da5cb5b1461028e578063ddca3f43146102b9578063f2fde38b146102e4576100c2565b80636352211e146101d457806370a0823114610211578063715018a61461024e576100c2565b8063095ea7b3146100c75780632052465e146100e357806323b872dd1461012557806342619f6614610141578063528b7b8f1461016c57806361728f39146101a9575b600080fd5b6100e160048036038101906100dc9190610fc7565b61030d565b005b3480156100ef57600080fd5b5061010a60048036038101906101059190611007565b6103be565b60405161011c96959493929190611118565b60405180910390f35b61013f600480360381019061013a9190611180565b6104ce565b005b34801561014d57600080fd5b506101566105b2565b60405161016391906111d3565b60405180910390f35b34801561017857600080fd5b50610193600480360381019061018e9190611007565b6105b8565b6040516101a091906111fd565b60405180910390f35b3480156101b557600080fd5b506101be6105eb565b6040516101cb9190611231565b60405180910390f35b3480156101e057600080fd5b506101fb60048036038101906101f69190611007565b6105f1565b60405161020891906111fd565b60405180910390f35b34801561021d57600080fd5b506102386004803603810190610233919061124c565b61062e565b60405161024591906111d3565b60405180910390f35b34801561025a57600080fd5b50610263610677565b005b34801561027157600080fd5b5061028c600480360381019061028791906113ae565b61078d565b005b34801561029a57600080fd5b506102a3610810565b6040516102b091906111fd565b60405180910390f35b3480156102c557600080fd5b506102ce610834565b6040516102db91906111d3565b60405180910390f35b3480156102f057600080fd5b5061030b6004803603810190610306919061124c565b61083a565b005b81600a600083815260200190815260200160002060006101000a81548173ffffffffffffffffffffffffffffffffffffffff021916908373ffffffffffffffffffffffffffffffffffffffff160217905550808273ffffffffffffffffffffffffffffffffffffffff163373ffffffffffffffffffffffffffffffffffffffff167f8c5be1e5ebec7d5bd14f71427d1e84f3dd0314c0f7b2291e5b200ac8c7c3b92560405160405180910390a45050565b600781815481106103ce57600080fd5b90600052602060002090600302016000915090508060000180546103f190611426565b80601f016020809104026020016040519081016040528092919081815260200182805461041d90611426565b801561046a5780601f1061043f5761010080835404028352916020019161046a565b820191906000526020600020905b81548152906001019060200180831161044d57829003601f168201915b5050505050908060010154908060020160009054906101000a900463ffffffff16908060020160049054906101000a900463ffffffff16908060020160089054906101000a900461ffff169080600201600a9054906101000a900461ffff16905086565b3373ffffffffffffffffffffffffffffffffffffffff166008600083815260200190815260200160002060009054906101000a900473ffffffffffffffffffffffffffffffffffffffff1673ffffffffffffffffffffffffffffffffffffffff16148061059957503373ffffffffffffffffffffffffffffffffffffffff16600a600083815260200190815260200160002060009054906101000a900473ffffffffffffffffffffffffffffffffffffffff1673ffffffffffffffffffffffffffffffffffffffff16145b6105a257600080fd5b6105ad83838361089e565b505050565b60065481565b60086020528060005260406000206000915054906101000a900473ffffffffffffffffffffffffffffffffffffffff1681565b60045481565b60006008600083815260200190815260200160002060009054906101000a900473ffffffffffffffffffffffffffffffffffffffff169050919050565b6000600960008373ffffffffffffffffffffffffffffffffffffffff1673ffffffffffffffffffffffffffffffffffffffff168152602001908152602001600020549050919050565b60008054906101000a900473ffffffffffffffffffffffffffffffffffffffff1673ffffffffffffffffffffffffffffffffffffffff163373ffffffffffffffffffffffffffffffffffffffff16146106cf57600080fd5b600073ffffffffffffffffffffffffffffffffffffffff1660008054906101000a900473ffffffffffffffffffffffffffffffffffffffff1673ffffffffffffffffffffffffffffffffffffffff167f8be0079c531659141344cd1fd0a4f28419497f9722a3daafe3b4186f6b6457e060405160405180910390a360008060006101000a81548173ffffffffffffffffffffffffffffffffffffffff021916908373ffffffffffffffffffffffffffffffffffffffff160217905550565b6000600960003373ffffffffffffffffffffffffffffffffffffffff1673ffffffffffffffffffffffffffffffffffffffff16815260200190815260200160002054146107d957600080fd5b60006107e482610a7c565b90506064816107f39190611486565b816107fe91906114e6565b905061080c82600654610ac1565b5050565b60008054906101000a900473ffffffffffffffffffffffffffffffffffffffff1681565b60055481565b60008054906101000a900473ffffffffffffffffffffffffffffffffffffffff1673ffffffffffffffffffffffffffffffffffffffff163373ffffffffffffffffffffffffffffffffffffffff161461089257600080fd5b61089b81610d38565b50565b6108f16001600960008573ffffffffffffffffffffffffffffffffffffffff1673ffffffffffffffffffffffffffffffffffffffff16815260200190815260200160002054610e2e90919063ffffffff16565b600960008473ffffffffffffffffffffffffffffffffffffffff1673ffffffffffffffffffffffffffffffffffffffff168152602001908152602001600020819055506109876001600960003373ffffffffffffffffffffffffffffffffffffffff1673ffffffffffffffffffffffffffffffffffffffff16815260200190815260200160002054610e5590919063ffffffff16565b600960003373ffffffffffffffffffffffffffffffffffffffff1673ffffffffffffffffffffffffffffffffffffffff16815260200190815260200160002081905550816008600083815260200190815260200160002060006101000a81548173ffffffffffffffffffffffffffffffffffffffff021916908373ffffffffffffffffffffffffffffffffffffffff160217905550808273ffffffffffffffffffffffffffffffffffffffff168473ffffffffffffffffffffffffffffffffffffffff167fddf252ad1be2c89b69c2b068fc378daa952ba7f163c4a11628f55a4df523b3ef60405160405180910390a4505050565b60008082604051602001610a909190611556565b6040516020818303038152906040528051906020012060001c905060025481610ab99190611486565b915050919050565b60076040518060c00160405280848152602001838152602001600163ffffffff16815260200160035442610af5919061156d565b63ffffffff168152602001600061ffff168152602001600061ffff1681525090806001815401808255809150506001900390600052602060002090600302016000909190919091506000820151816000019080519060200190610b59929190610e7c565b506020820151816001015560408201518160020160006101000a81548163ffffffff021916908363ffffffff16021790555060608201518160020160046101000a81548163ffffffff021916908363ffffffff16021790555060808201518160020160086101000a81548161ffff021916908361ffff16021790555060a082015181600201600a6101000a81548161ffff021916908361ffff160217905550505060006001600780549050610c0e91906114e6565b9050336008600083815260200190815260200160002060006101000a81548173ffffffffffffffffffffffffffffffffffffffff021916908373ffffffffffffffffffffffffffffffffffffffff160217905550610cb56001600960003373ffffffffffffffffffffffffffffffffffffffff1673ffffffffffffffffffffffffffffffffffffffff16815260200190815260200160002054610e2e90919063ffffffff16565b600960003373ffffffffffffffffffffffffffffffffffffffff1673ffffffffffffffffffffffffffffffffffffffff168152602001908152602001600020819055507f88f026aacbbecc90c18411df4b1185fd8d9be2470f1962f192bf84a27d0704b7818484604051610d2b939291906115c3565b60405180910390a1505050565b600073ffffffffffffffffffffffffffffffffffffffff168173ffffffffffffffffffffffffffffffffffffffff1603610d7157600080fd5b8073ffffffffffffffffffffffffffffffffffffffff1660008054906101000a900473ffffffffffffffffffffffffffffffffffffffff1673ffffffffffffffffffffffffffffffffffffffff167f8be0079c531659141344cd1fd0a4f28419497f9722a3daafe3b4186f6b6457e060405160405180910390a3806000806101000a81548173ffffffffffffffffffffffffffffffffffffffff021916908373ffffffffffffffffffffffffffffffffffffffff16021790555050565b60008183610e3c919061156d565b905082811015610e4f57610e4e611601565b5b92915050565b600082821115610e6857610e67611601565b5b8183610e7491906114e6565b905092915050565b828054610e8890611426565b90600052602060002090601f016020900481019282610eaa5760008555610ef1565b82601f10610ec357805160ff1916838001178555610ef1565b82800160010185558215610ef1579182015b82811115610ef0578251825591602001919060010190610ed5565b5b509050610efe9190610f02565b5090565b5b80821115610f1b576000816000905550600101610f03565b5090565b6000604051905090565b600080fd5b600080fd5b600073ffffffffffffffffffffffffffffffffffffffff82169050919050565b6000610f5e82610f33565b9050919050565b610f6e81610f53565b8114610f7957600080fd5b50565b600081359050610f8b81610f65565b92915050565b6000819050919050565b610fa481610f91565b8114610faf57600080fd5b50565b600081359050610fc181610f9b565b92915050565b60008060408385031215610fde57610fdd610f29565b5b6000610fec85828601610f7c565b9250506020610ffd85828601610fb2565b9150509250929050565b60006020828403121561101d5761101c610f29565b5b600061102b84828501610fb2565b91505092915050565b600081519050919050565b600082825260208201905092915050565b60005b8381101561106e578082015181840152602081019050611053565b8381111561107d576000848401525b50505050565b6000601f19601f8301169050919050565b600061109f82611034565b6110a9818561103f565b93506110b9818560208601611050565b6110c281611083565b840191505092915050565b6110d681610f91565b82525050565b600063ffffffff82169050919050565b6110f5816110dc565b82525050565b600061ffff82169050919050565b611112816110fb565b82525050565b600060c08201905081810360008301526111328189611094565b905061114160208301886110cd565b61114e60408301876110ec565b61115b60608301866110ec565b6111686080830185611109565b61117560a0830184611109565b979650505050505050565b60008060006060848603121561119957611198610f29565b5b60006111a786828701610f7c565b93505060206111b886828701610f7c565b92505060406111c986828701610fb2565b9150509250925092565b60006020820190506111e860008301846110cd565b92915050565b6111f781610f53565b82525050565b600060208201905061121260008301846111ee565b92915050565b6000819050919050565b61122b81611218565b82525050565b60006020820190506112466000830184611222565b92915050565b60006020828403121561126257611261610f29565b5b600061127084828501610f7c565b91505092915050565b600080fd5b600080fd5b7f4e487b7100000000000000000000000000000000000000000000000000000000600052604160045260246000fd5b6112bb82611083565b810181811067ffffffffffffffff821117156112da576112d9611283565b5b80604052505050565b60006112ed610f1f565b90506112f982826112b2565b919050565b600067ffffffffffffffff82111561131957611318611283565b5b61132282611083565b9050602081019050919050565b82818337600083830152505050565b600061135161134c846112fe565b6112e3565b90508281526020810184848401111561136d5761136c61127e565b5b61137884828561132f565b509392505050565b600082601f83011261139557611394611279565b5b81356113a584826020860161133e565b91505092915050565b6000602082840312156113c4576113c3610f29565b5b600082013567ffffffffffffffff8111156113e2576113e1610f2e565b5b6113ee84828501611380565b91505092915050565b7f4e487b7100000000000000000000000000000000000000000000000000000000600052602260045260246000fd5b6000600282049050600182168061143e57607f821691505b602082108103611451576114506113f7565b5b50919050565b7f4e487b7100000000000000000000000000000000000000000000000000000000600052601260045260246000fd5b600061149182610f91565b915061149c83610f91565b9250826114ac576114ab611457565b5b828206905092915050565b7f4e487b7100000000000000000000000000000000000000000000000000000000600052601160045260246000fd5b60006114f182610f91565b91506114fc83610f91565b92508282101561150f5761150e6114b7565b5b828203905092915050565b600081905092915050565b600061153082611034565b61153a818561151a565b935061154a818560208601611050565b80840191505092915050565b60006115628284611525565b915081905092915050565b600061157882610f91565b915061158383610f91565b9250827fffffffffffffffffffffffffffffffffffffffffffffffffffffffffffffffff038211156115b8576115b76114b7565b5b828201905092915050565b60006060820190506115d860008301866110cd565b81810360208301526115ea8185611094565b90506115f960408301846110cd565b949350505050565b7f4e487b7100000000000000000000000000000000000000000000000000000000600052600160045260246000fdfea264697066735822122006b5c8617751ad31f9479215cc464ac1a9a73d92c3b489a93d75300af2de238564736f6c634300080d0033",
  "immutableReferences": {},
  "source": "// SPDX-License-Identifier: MIT\r\npragma solidity >=0.4.22 <0.9.0;\r\n\r\nimport \"zeppelin-solidity/contracts/ownership/Ownable.sol\";\r\nimport \"zeppelin-solidity/contracts/math/SafeMath.sol\";\r\nimport \"./asset/erc721.sol\";\r\n\r\n//import \"./src/v0.6/VRFConsumerBase.sol\";\r\n\r\ncontract ZombieFactory is Ownable, ERC721 {\r\n\r\n  using SafeMath for uint256;\r\n  using SafeMath32 for uint32;\r\n  using SafeMath16 for uint16;\r\n\r\n  event NewZombie(uint zombieId, string name, uint dna);\r\n\r\n  uint dnaDigits = 16;\r\n  uint dnaModulus = 10 ** dnaDigits;\r\n  uint cooldownTime = 1 days;\r\n\r\n  bytes32 public keyHash;\r\n  uint256 public fee;\r\n  uint256 public randomResult;\r\n\r\n  // constructor() VRFConsumerBase(\r\n  //     0xb3dCcb4Cf7a26f6cf6B120Cf5A73875B7BBc655B, // VRF Coordinator\r\n  //     0x01BE23585060835E02B77ef475b0Cc51aA1e0709  // LINK Token\r\n  // ) public{\r\n  //     keyHash = 0x2ed0feb3e7fd2022120aa84fab1945545a9f2ffc9076fd6156fa96eaff4c1311;\r\n  //     fee = 100000000000000000;\r\n\r\n  // }\r\n\r\n  // function getRandomNumber() public returns (bytes32 requestId) {\r\n  //     return requestRandomness(keyHash, fee);\r\n  // }\r\n\r\n  // function fulfillRandomness(bytes32 requestId, uint256 randomness) internal override {\r\n  //     randomResult = randomness;\r\n  // }\r\n\r\n  struct Zombie {\r\n    string name;\r\n    uint dna;\r\n    uint32 level;\r\n    uint32 readyTime;\r\n    uint16 winCount;\r\n    uint16 lossCount;\r\n  }\r\n\r\n  Zombie[] public zombies;\r\n\r\n  mapping (uint => address) public zombieToOwner;\r\n  mapping (address => uint) ownerZombieCount;\r\n\r\n  function _createZombie(string memory _name, uint _dna) internal {\r\n    zombies.push(Zombie(_name, _dna, 1, uint32(block.timestamp + cooldownTime), 0, 0));\r\n    uint id = zombies.length - 1;\r\n    zombieToOwner[id] = msg.sender;\r\n    ownerZombieCount[msg.sender] = ownerZombieCount[msg.sender].add(1);\r\n    emit NewZombie(id, _name, _dna);\r\n  }\r\n\r\n  function _generateRandomDna(string memory _str) private view returns (uint) {\r\n    uint rand = uint(keccak256(abi.encodePacked(_str)));\r\n    return rand % dnaModulus;\r\n  }\r\n\r\n  function createRandomZombie(string memory _name) public {\r\n    require(ownerZombieCount[msg.sender] == 0);\r\n    //getRandomNumber();\r\n    uint randDna = _generateRandomDna(_name);\r\n    randDna = randDna - randDna % 100;\r\n    _createZombie(_name, randomResult);\r\n  }\r\n\r\n  /////////////////////////////////////////////////////////////////\r\n  //ZoombieOwnership file\r\n  mapping (uint => address) zombieApprovals;\r\n\r\n  function balanceOf(address _owner) external view returns (uint256) {\r\n    return ownerZombieCount[_owner];\r\n  }\r\n\r\n  function ownerOf(uint256 _tokenId) external view returns (address) {\r\n    return zombieToOwner[_tokenId];\r\n  }\r\n\r\n  function _transfer(address _from, address _to, uint256 _tokenId) private {\r\n    ownerZombieCount[_to] = ownerZombieCount[_to].add(1);\r\n    ownerZombieCount[msg.sender] = ownerZombieCount[msg.sender].sub(1);\r\n    zombieToOwner[_tokenId] = _to;\r\n    emit Transfer(_from, _to, _tokenId);\r\n  }\r\n\r\n  function transferFrom(address _from, address _to, uint256 _tokenId) external payable {\r\n      require (zombieToOwner[_tokenId] == msg.sender || zombieApprovals[_tokenId] == msg.sender);\r\n      _transfer(_from, _to, _tokenId);\r\n    }\r\n\r\n  function approve(address _approved, uint256 _tokenId) external payable {\r\n      zombieApprovals[_tokenId] = _approved;\r\n      emit Approval(msg.sender, _approved, _tokenId);\r\n    }\r\n}\r\n",
  "sourcePath": "D:\\test\\zombieDApp\\contracts\\ZombieFactory.sol",
  "compiler": {
    "name": "solc",
    "version": "0.8.13+commit.abaa5c0e.Emscripten.clang"
  },
  "schemaVersion": "3.4.7",
  "updatedAt": "2022-05-17T03:43:00.334Z",
  "devdoc": {
    "kind": "dev",
    "methods": {
      "renounceOwnership()": {
        "details": "Allows the current owner to relinquish control of the contract."
      },
      "transferOwnership(address)": {
        "details": "Allows the current owner to transfer control of the contract to a newOwner.",
        "params": {
          "_newOwner": "The address to transfer ownership to."
        }
      }
    },
    "version": 1
  },
  "userdoc": {
    "kind": "user",
    "methods": {
      "renounceOwnership()": {
        "notice": "Renouncing to ownership will leave the contract without an owner. It will not be possible to call the functions with the `onlyOwner` modifier anymore."
      }
    },
    "version": 1
  }
}